{
  "abi": [
    {
      "inputs": [],
      "stateMutability": "nonpayable",
      "type": "constructor"
    },
    {
      "inputs": [
        {
          "internalType": "bool",
          "name": "val",
          "type": "bool"
        }
      ],
      "name": "f0",
      "outputs": [],
      "stateMutability": "nonpayable",
      "type": "function"
    },
    {
      "inputs": [
        {
          "internalType": "uint256",
          "name": "val",
          "type": "uint256"
        }
      ],
      "name": "f1",
      "outputs": [],
      "stateMutability": "nonpayable",
      "type": "function"
    },
    {
      "inputs": [],
      "name": "live",
      "outputs": [
        {
          "internalType": "bool",
          "name": "",
          "type": "bool"
        }
      ],
      "stateMutability": "view",
      "type": "function"
    },
    {
      "inputs": [],
      "name": "owner",
      "outputs": [
        {
          "internalType": "address",
          "name": "",
          "type": "address"
        }
      ],
      "stateMutability": "view",
      "type": "function"
    },
    {
      "inputs": [
        {
          "internalType": "uint256",
          "name": "",
          "type": "uint256"
        }
      ],
      "name": "points",
      "outputs": [
        {
          "internalType": "uint256",
          "name": "",
          "type": "uint256"
        }
      ],
      "stateMutability": "view",
      "type": "function"
    },
    {
      "inputs": [
        {
          "internalType": "address",
          "name": "",
          "type": "address"
        },
        {
          "internalType": "uint256",
          "name": "",
          "type": "uint256"
        }
      ],
      "name": "progress",
      "outputs": [
        {
          "internalType": "uint256",
          "name": "",
          "type": "uint256"
        }
      ],
      "stateMutability": "view",
      "type": "function"
    },
    {
      "inputs": [
        {
          "internalType": "string",
          "name": "team",
          "type": "string"
        }
      ],
      "name": "registerTeam",
      "outputs": [],
      "stateMutability": "nonpayable",
      "type": "function"
    },
    {
      "inputs": [
        {
          "internalType": "address",
          "name": "",
          "type": "address"
        }
      ],
      "name": "scores",
      "outputs": [
        {
          "internalType": "uint256",
          "name": "",
          "type": "uint256"
        }
      ],
      "stateMutability": "view",
      "type": "function"
    },
    {
      "inputs": [],
      "name": "start",
      "outputs": [],
      "stateMutability": "nonpayable",
      "type": "function"
    },
    {
      "inputs": [],
      "name": "stop",
      "outputs": [],
      "stateMutability": "nonpayable",
      "type": "function"
    },
    {
      "inputs": [
        {
          "internalType": "address",
          "name": "",
          "type": "address"
        }
      ],
      "name": "teams",
      "outputs": [
        {
          "internalType": "string",
          "name": "",
          "type": "string"
        }
      ],
      "stateMutability": "view",
      "type": "function"
    }
  ],
  "bytecode": {
    "object": "0x60c060405260016080908152600260a081905261001e91600491610043565b5034801561002b57600080fd5b50600080546001600160a01b0319163317905561009b565b8260028101928215610076579160200282015b82811115610076578251829060ff16905591602001919060010190610056565b50610082929150610086565b5090565b5b808211156100825760008155600101610087565b610a68806100aa6000396000f3fe608060405234801561001057600080fd5b50600436106100a95760003560e01c8063957aa58c11610071578063957aa58c1461013c5780639799b4e7146101605780639adbf69114610173578063aa91c62e14610186578063be9a655514610199578063c4583240146101a157600080fd5b806307da68f5146100ae5780630c91cdbc146100b857806376dd110f146100de5780638729e5c1146100fe5780638da5cb5b14610111575b600080fd5b6100b66101c1565b005b6100cb6100c63660046107bf565b61021c565b6040519081526020015b60405180910390f35b6100cb6100ec3660046107e9565b60026020526000908152604090205481565b6100b661010c366004610821565b610241565b600054610124906001600160a01b031681565b6040516001600160a01b0390911681526020016100d5565b60005461015090600160a01b900460ff1681565b60405190151581526020016100d5565b6100cb61016e3660046108d2565b6102f7565b6100b66101813660046108d2565b61030e565b6100b66101943660046108eb565b6104b0565b6100b6610614565b6101b46101af3660046107e9565b610670565b6040516100d5919061090d565b6000546001600160a01b0316331461020d5760405162461bcd60e51b815260206004820152600a60248201526927b7363c9037bbb732b960b11b60448201526064015b60405180910390fd5b6000805460ff60a01b19169055565b6003602052816000526040600020816002811061023857600080fd5b01549150829050565b600054600160a01b900460ff1661026a5760405162461bcd60e51b815260040161020490610962565b336000908152600160205260409020805461028490610999565b1590506102d35760405162461bcd60e51b815260206004820152601760248201527f416c72656164792072656769737465726564207465616d0000000000000000006044820152606401610204565b33600090815260016020908152604090912082516102f39284019061070a565b5050565b6004816002811061030757600080fd5b0154905081565b600054600190600160a01b900460ff1661033a5760405162461bcd60e51b815260040161020490610962565b336000908152600160205260409020805461035490610999565b1515905061039e5760405162461bcd60e51b81526020600482015260176024820152764d757374207265676973746572207465616d206e616d6560481b6044820152606401610204565b33600090815260036020526040902081600281106103be576103be6109d4565b01541561040d5760405162461bcd60e51b815260206004820152601f60248201527f416c726561647920636f6d706c6574656420746869732066756e6374696f6e006044820152606401610204565b60008260405160200161042291815260200190565b60408051601f1981840301815291905280516020909101209050610448610194826109ea565b6104ab57336000908152600360205260409020600190836002811061046f5761046f6109d4565b015560048260028110610484576104846109d4565b015433600090815260026020526040812080549091906104a5908490610a0c565b90915550505b505050565b60008054600160a01b900460ff166104da5760405162461bcd60e51b815260040161020490610962565b33600090815260016020526040902080546104f490610999565b1515905061053e5760405162461bcd60e51b81526020600482015260176024820152764d757374207265676973746572207465616d206e616d6560481b6044820152606401610204565b336000908152600360205260409020816002811061055e5761055e6109d4565b0154156105ad5760405162461bcd60e51b815260206004820152601f60248201527f416c726561647920636f6d706c6574656420746869732066756e6374696f6e006044820152606401610204565b816102f35733600090815260036020526040902060019082600281106105d5576105d56109d4565b0155600481600281106105ea576105ea6109d4565b0154336000908152600260205260408120805490919061060b908490610a0c565b90915550505050565b6000546001600160a01b0316331461065b5760405162461bcd60e51b815260206004820152600a60248201526927b7363c9037bbb732b960b11b6044820152606401610204565b6000805460ff60a01b1916600160a01b179055565b6001602052600090815260409020805461068990610999565b80601f01602080910402602001604051908101604052809291908181526020018280546106b590610999565b80156107025780601f106106d757610100808354040283529160200191610702565b820191906000526020600020905b8154815290600101906020018083116106e557829003601f168201915b505050505081565b82805461071690610999565b90600052602060002090601f016020900481019282610738576000855561077e565b82601f1061075157805160ff191683800117855561077e565b8280016001018555821561077e579182015b8281111561077e578251825591602001919060010190610763565b5061078a92915061078e565b5090565b5b8082111561078a576000815560010161078f565b80356001600160a01b03811681146107ba57600080fd5b919050565b600080604083850312156107d257600080fd5b6107db836107a3565b946020939093013593505050565b6000602082840312156107fb57600080fd5b610804826107a3565b9392505050565b634e487b7160e01b600052604160045260246000fd5b60006020828403121561083357600080fd5b813567ffffffffffffffff8082111561084b57600080fd5b818401915084601f83011261085f57600080fd5b8135818111156108715761087161080b565b604051601f8201601f19908116603f011681019083821181831017156108995761089961080b565b816040528281528760208487010111156108b257600080fd5b826020860160208301376000928101602001929092525095945050505050565b6000602082840312156108e457600080fd5b5035919050565b6000602082840312156108fd57600080fd5b8135801515811461080457600080fd5b600060208083528351808285015260005b8181101561093a5785810183015185820160400152820161091e565b8181111561094c576000604083870101525b50601f01601f1916929092016040019392505050565b60208082526018908201527f4861636b6174686f6e206e6f7420696e2073657373696f6e0000000000000000604082015260600190565b600181811c908216806109ad57607f821691505b602082108114156109ce57634e487b7160e01b600052602260045260246000fd5b50919050565b634e487b7160e01b600052603260045260246000fd5b600082610a0757634e487b7160e01b600052601260045260246000fd5b500690565b60008219821115610a2d57634e487b7160e01b600052601160045260246000fd5b50019056fea26469706673582212201bee62bc1d033d7512d0640d55107e261cbc339892380b139bbc7854959a91e264736f6c634300080a0033",
    "linkReferences": {}
  },
  "methodIdentifiers": {
    "f0(bool)": "aa91c62e",
    "f1(uint256)": "9adbf691",
    "live()": "957aa58c",
    "owner()": "8da5cb5b",
    "points(uint256)": "9799b4e7",
    "progress(address,uint256)": "0c91cdbc",
    "registerTeam(string)": "8729e5c1",
    "scores(address)": "76dd110f",
    "start()": "be9a6555",
    "stop()": "07da68f5",
    "teams(address)": "c4583240"
  },
  "id": 2
}