{
  "abi": [
    {
      "inputs": [
        {
          "internalType": "uint256",
          "name": "amountInUSD",
          "type": "uint256"
        }
      ],
      "name": "convertFromUSD",
      "outputs": [
        {
          "internalType": "uint256",
          "name": "",
          "type": "uint256"
        }
      ],
      "stateMutability": "view",
      "type": "function"
    },
    {
      "inputs": [],
      "name": "getPrice",
      "outputs": [
        {
          "internalType": "uint256",
          "name": "",
          "type": "uint256"
        },
        {
          "internalType": "uint256",
          "name": "",
          "type": "uint256"
        }
      ],
      "stateMutability": "view",
      "type": "function"
    },
    {
      "inputs": [],
      "name": "priceFeedAddress",
      "outputs": [
        {
          "internalType": "address",
          "name": "",
          "type": "address"
        }
      ],
      "stateMutability": "view",
      "type": "function"
    }
  ],
  "bytecode": {
    "object": "0x608060405234801561001057600080fd5b5061040e806100206000396000f3fe608060405234801561001057600080fd5b50600436106100415760003560e01c806395b366701461004657806398d5fdca1461006c578063e0abca0b14610089575b600080fd5b6100596100543660046101dd565b6100b4565b6040519081526020015b60405180910390f35b6100746100f1565b60408051928352602083019190915201610063565b60005461009c906001600160a01b031681565b6040516001600160a01b039091168152602001610063565b60008060006100c16100f1565b90925090506000826100d483600a6102f2565b6100de9087610305565b6100e89190610324565b95945050505050565b6000805460408051633fabe5a360e21b8152905183926001600160a01b0316918391839163feaf968c9160048083019260a09291908290030181865afa15801561013f573d6000803e3d6000fd5b505050506040513d601f19601f820116820180604052508101906101639190610365565b5050509150506000826001600160a01b031663313ce5676040518163ffffffff1660e01b8152600401602060405180830381865afa1580156101a9573d6000803e3d6000fd5b505050506040513d601f19601f820116820180604052508101906101cd91906103b5565b919560ff90921694509092505050565b6000602082840312156101ef57600080fd5b5035919050565b634e487b7160e01b600052601160045260246000fd5b600181815b8085111561024757816000190482111561022d5761022d6101f6565b8085161561023a57918102915b93841c9390800290610211565b509250929050565b60008261025e575060016102ec565b8161026b575060006102ec565b8160018114610281576002811461028b576102a7565b60019150506102ec565b60ff84111561029c5761029c6101f6565b50506001821b6102ec565b5060208310610133831016604e8410600b84101617156102ca575081810a6102ec565b6102d4838361020c565b80600019048211156102e8576102e86101f6565b0290505b92915050565b60006102fe838361024f565b9392505050565b600081600019048311821515161561031f5761031f6101f6565b500290565b60008261034157634e487b7160e01b600052601260045260246000fd5b500490565b805169ffffffffffffffffffff8116811461036057600080fd5b919050565b600080600080600060a0868803121561037d57600080fd5b61038686610346565b94506020860151935060408601519250606086015191506103a960808701610346565b90509295509295909350565b6000602082840312156103c757600080fd5b815160ff811681146102fe57600080fdfea2646970667358221220604bd943169a8c068555f8a642a1565d92703cec9598ead44f49d45a9a0431f764736f6c634300080a0033",
    "linkReferences": {}
  },
  "methodIdentifiers": {
    "convertFromUSD(uint256)": "95b36670",
    "getPrice()": "98d5fdca",
    "priceFeedAddress()": "e0abca0b"
  },
  "id": 6
}