{
  "abi": [
    {
      "inputs": [
        {
          "internalType": "uint256",
          "name": "_listingFee",
          "type": "uint256"
        },
        {
          "internalType": "address",
          "name": "_priceFeedAddress",
          "type": "address"
        }
      ],
      "stateMutability": "nonpayable",
      "type": "constructor"
    },
    {
      "inputs": [],
      "name": "DecentralAirbnb__AlreadyBooked",
      "type": "error"
    },
    {
      "inputs": [],
      "name": "DecentralAirbnb__InsufficientAmount",
      "type": "error"
    },
    {
      "inputs": [],
      "name": "DecentralAirbnb__InvalidBookingPeriod",
      "type": "error"
    },
    {
      "inputs": [],
      "name": "DecentralAirbnb__InvalidFee",
      "type": "error"
    },
    {
      "inputs": [],
      "name": "DecentralAirbnb__InvalidRentalId",
      "type": "error"
    },
    {
      "inputs": [],
      "name": "DecentralAirbnb__OnlyAdmin",
      "type": "error"
    },
    {
      "inputs": [],
      "name": "DecentralAirbnb__TransferFailed",
      "type": "error"
    },
    {
      "anonymous": false,
      "inputs": [
        {
          "indexed": false,
          "internalType": "uint256",
          "name": "rentalId",
          "type": "uint256"
        },
        {
          "indexed": false,
          "internalType": "address",
          "name": "renter",
          "type": "address"
        },
        {
          "indexed": false,
          "internalType": "uint256",
          "name": "bookDateStart",
          "type": "uint256"
        },
        {
          "indexed": false,
          "internalType": "uint256",
          "name": "bookDateEnd",
          "type": "uint256"
        },
        {
          "indexed": false,
          "internalType": "uint256",
          "name": "timestamp",
          "type": "uint256"
        }
      ],
      "name": "NewBookAdded",
      "type": "event"
    },
    {
      "anonymous": false,
      "inputs": [
        {
          "indexed": false,
          "internalType": "uint256",
          "name": "id",
          "type": "uint256"
        },
        {
          "indexed": false,
          "internalType": "address",
          "name": "owner",
          "type": "address"
        },
        {
          "indexed": false,
          "internalType": "string",
          "name": "name",
          "type": "string"
        },
        {
          "indexed": false,
          "internalType": "string",
          "name": "city",
          "type": "string"
        },
        {
          "indexed": false,
          "internalType": "string",
          "name": "latitude",
          "type": "string"
        },
        {
          "indexed": false,
          "internalType": "string",
          "name": "longitude",
          "type": "string"
        },
        {
          "indexed": false,
          "internalType": "string",
          "name": "description",
          "type": "string"
        },
        {
          "indexed": false,
          "internalType": "string",
          "name": "imgUrl",
          "type": "string"
        },
        {
          "indexed": false,
          "internalType": "uint256",
          "name": "maxGuests",
          "type": "uint256"
        },
        {
          "indexed": false,
          "internalType": "uint256",
          "name": "pricePerDay",
          "type": "uint256"
        },
        {
          "indexed": false,
          "internalType": "uint256",
          "name": "timestamp",
          "type": "uint256"
        }
      ],
      "name": "NewRentalCreated",
      "type": "event"
    },
    {
      "inputs": [
        {
          "internalType": "string",
          "name": "_name",
          "type": "string"
        },
        {
          "internalType": "string",
          "name": "_city",
          "type": "string"
        },
        {
          "internalType": "string",
          "name": "_latitude",
          "type": "string"
        },
        {
          "internalType": "string",
          "name": "_longitude",
          "type": "string"
        },
        {
          "internalType": "string",
          "name": "_description",
          "type": "string"
        },
        {
          "internalType": "string",
          "name": "_imgUrl",
          "type": "string"
        },
        {
          "internalType": "uint256",
          "name": "_maxGuests",
          "type": "uint256"
        },
        {
          "internalType": "uint256",
          "name": "_pricePerDay",
          "type": "uint256"
        }
      ],
      "name": "addRental",
      "outputs": [],
      "stateMutability": "payable",
      "type": "function"
    },
    {
      "inputs": [],
      "name": "admin",
      "outputs": [
        {
          "internalType": "address",
          "name": "",
          "type": "address"
        }
      ],
      "stateMutability": "view",
      "type": "function"
    },
    {
      "inputs": [
        {
          "internalType": "uint256",
          "name": "_id",
          "type": "uint256"
        },
        {
          "internalType": "uint256",
          "name": "_fromDateTimestamp",
          "type": "uint256"
        },
        {
          "internalType": "uint256",
          "name": "_toDateTimestamp",
          "type": "uint256"
        }
      ],
      "name": "bookDates",
      "outputs": [],
      "stateMutability": "payable",
      "type": "function"
    },
    {
      "inputs": [
        {
          "internalType": "uint256",
          "name": "_newFee",
          "type": "uint256"
        }
      ],
      "name": "changeListingFee",
      "outputs": [],
      "stateMutability": "nonpayable",
      "type": "function"
    },
    {
      "inputs": [
        {
          "internalType": "uint256",
          "name": "amountInUSD",
          "type": "uint256"
        }
      ],
      "name": "convertFromUSD",
      "outputs": [
        {
          "internalType": "uint256",
          "name": "",
          "type": "uint256"
        }
      ],
      "stateMutability": "view",
      "type": "function"
    },
    {
      "inputs": [],
      "name": "getPrice",
      "outputs": [
        {
          "internalType": "uint256",
          "name": "",
          "type": "uint256"
        },
        {
          "internalType": "uint256",
          "name": "",
          "type": "uint256"
        }
      ],
      "stateMutability": "view",
      "type": "function"
    },
    {
      "inputs": [
        {
          "internalType": "uint256",
          "name": "_id",
          "type": "uint256"
        }
      ],
      "name": "getRentalBookings",
      "outputs": [
        {
          "components": [
            {
              "internalType": "address",
              "name": "renter",
              "type": "address"
            },
            {
              "internalType": "uint256",
              "name": "fromTimestamp",
              "type": "uint256"
            },
            {
              "internalType": "uint256",
              "name": "toTimestamp",
              "type": "uint256"
            }
          ],
          "internalType": "struct DecentralAirbnb.Booking[]",
          "name": "",
          "type": "tuple[]"
        }
      ],
      "stateMutability": "view",
      "type": "function"
    },
    {
      "inputs": [
        {
          "internalType": "uint256",
          "name": "_id",
          "type": "uint256"
        }
      ],
      "name": "getRentalInfo",
      "outputs": [
        {
          "components": [
            {
              "internalType": "uint256",
              "name": "id",
              "type": "uint256"
            },
            {
              "internalType": "address",
              "name": "owner",
              "type": "address"
            },
            {
              "internalType": "string",
              "name": "name",
              "type": "string"
            },
            {
              "internalType": "string",
              "name": "city",
              "type": "string"
            },
            {
              "internalType": "string",
              "name": "latitude",
              "type": "string"
            },
            {
              "internalType": "string",
              "name": "longitude",
              "type": "string"
            },
            {
              "internalType": "string",
              "name": "description",
              "type": "string"
            },
            {
              "internalType": "string",
              "name": "imgUrl",
              "type": "string"
            },
            {
              "internalType": "uint256",
              "name": "maxNumberOfGuests",
              "type": "uint256"
            },
            {
              "internalType": "uint256",
              "name": "pricePerDay",
              "type": "uint256"
            }
          ],
          "internalType": "struct DecentralAirbnb.RentalInfo",
          "name": "",
          "type": "tuple"
        }
      ],
      "stateMutability": "view",
      "type": "function"
    },
    {
      "inputs": [],
      "name": "getRentals",
      "outputs": [
        {
          "components": [
            {
              "internalType": "uint256",
              "name": "id",
              "type": "uint256"
            },
            {
              "internalType": "address",
              "name": "owner",
              "type": "address"
            },
            {
              "internalType": "string",
              "name": "name",
              "type": "string"
            },
            {
              "internalType": "string",
              "name": "city",
              "type": "string"
            },
            {
              "internalType": "string",
              "name": "latitude",
              "type": "string"
            },
            {
              "internalType": "string",
              "name": "longitude",
              "type": "string"
            },
            {
              "internalType": "string",
              "name": "description",
              "type": "string"
            },
            {
              "internalType": "string",
              "name": "imgUrl",
              "type": "string"
            },
            {
              "internalType": "uint256",
              "name": "maxNumberOfGuests",
              "type": "uint256"
            },
            {
              "internalType": "uint256",
              "name": "pricePerDay",
              "type": "uint256"
            }
          ],
          "internalType": "struct DecentralAirbnb.RentalInfo[]",
          "name": "",
          "type": "tuple[]"
        }
      ],
      "stateMutability": "view",
      "type": "function"
    },
    {
      "inputs": [],
      "name": "listingFee",
      "outputs": [
        {
          "internalType": "uint256",
          "name": "",
          "type": "uint256"
        }
      ],
      "stateMutability": "view",
      "type": "function"
    },
    {
      "inputs": [],
      "name": "priceFeedAddress",
      "outputs": [
        {
          "internalType": "address",
          "name": "",
          "type": "address"
        }
      ],
      "stateMutability": "view",
      "type": "function"
    },
    {
      "inputs": [
        {
          "internalType": "uint256",
          "name": "",
          "type": "uint256"
        }
      ],
      "name": "rentals",
      "outputs": [
        {
          "internalType": "uint256",
          "name": "id",
          "type": "uint256"
        },
        {
          "internalType": "address",
          "name": "owner",
          "type": "address"
        },
        {
          "internalType": "string",
          "name": "name",
          "type": "string"
        },
        {
          "internalType": "string",
          "name": "city",
          "type": "string"
        },
        {
          "internalType": "string",
          "name": "latitude",
          "type": "string"
        },
        {
          "internalType": "string",
          "name": "longitude",
          "type": "string"
        },
        {
          "internalType": "string",
          "name": "description",
          "type": "string"
        },
        {
          "internalType": "string",
          "name": "imgUrl",
          "type": "string"
        },
        {
          "internalType": "uint256",
          "name": "maxNumberOfGuests",
          "type": "uint256"
        },
        {
          "internalType": "uint256",
          "name": "pricePerDay",
          "type": "uint256"
        }
      ],
      "stateMutability": "view",
      "type": "function"
    },
    {
      "inputs": [],
      "name": "withdrawBalance",
      "outputs": [],
      "stateMutability": "nonpayable",
      "type": "function"
    }
  ],
  "bytecode": {
    "object": "0x608060405234801561001057600080fd5b50604051620023fc380380620023fc83398101604081905261003191610067565b60018054336001600160a01b031991821617909155600292909255600080549092166001600160a01b03919091161790556100a4565b6000806040838503121561007a57600080fd5b825160208401519092506001600160a01b038116811461009957600080fd5b809150509250929050565b61234880620000b46000396000f3fe6080604052600436106100c25760003560e01c80637eb897241161007f5780639982aaeb116100595780639982aaeb14610204578063af94a1d114610217578063e0abca0b1461024d578063f851a4401461028557600080fd5b80637eb897241461018d57806395b36670146101ba57806398d5fdca146101da57600080fd5b806327dc3fbd146100c757806346e6e5fb146100fd5780635ea5da20146101125780635fd8c710146101345780636a1b7ecc1461014957806377f25f6f1461016d575b600080fd5b3480156100d357600080fd5b506100e76100e2366004611b64565b6102a5565b6040516100f49190611ca9565b60405180910390f35b61011061010b366004611cbc565b610716565b005b34801561011e57600080fd5b50610127610cf8565b6040516100f49190611ce8565b34801561014057600080fd5b506101106110f8565b34801561015557600080fd5b5061015f60025481565b6040519081526020016100f4565b34801561017957600080fd5b50610110610188366004611b64565b61119a565b34801561019957600080fd5b506101ad6101a8366004611b64565b6111ca565b6040516100f49190611d4a565b3480156101c657600080fd5b5061015f6101d5366004611b64565b611279565b3480156101e657600080fd5b506101ef6112b6565b604080519283526020830191909152016100f4565b610110610212366004611e4f565b6113a2565b34801561022357600080fd5b50610237610232366004611b64565b6115e0565b6040516100f49a99989796959493929190611f59565b34801561025957600080fd5b5060005461026d906001600160a01b031681565b6040516001600160a01b0390911681526020016100f4565b34801561029157600080fd5b5060015461026d906001600160a01b031681565b6103046040518061014001604052806000815260200160006001600160a01b0316815260200160608152602001606081526020016060815260200160608152602001606081526020016060815260200160008152602001600081525090565b81600354811061032757604051632555990360e01b815260040160405180910390fd5b6004838154811061033a5761033a612004565b90600052602060002090600a020160405180610140016040529081600082015481526020016001820160009054906101000a90046001600160a01b03166001600160a01b03166001600160a01b0316815260200160028201805461039d9061201a565b80601f01602080910402602001604051908101604052809291908181526020018280546103c99061201a565b80156104165780601f106103eb57610100808354040283529160200191610416565b820191906000526020600020905b8154815290600101906020018083116103f957829003601f168201915b5050505050815260200160038201805461042f9061201a565b80601f016020809104026020016040519081016040528092919081815260200182805461045b9061201a565b80156104a85780601f1061047d576101008083540402835291602001916104a8565b820191906000526020600020905b81548152906001019060200180831161048b57829003601f168201915b505050505081526020016004820180546104c19061201a565b80601f01602080910402602001604051908101604052809291908181526020018280546104ed9061201a565b801561053a5780601f1061050f5761010080835404028352916020019161053a565b820191906000526020600020905b81548152906001019060200180831161051d57829003601f168201915b505050505081526020016005820180546105539061201a565b80601f016020809104026020016040519081016040528092919081815260200182805461057f9061201a565b80156105cc5780601f106105a1576101008083540402835291602001916105cc565b820191906000526020600020905b8154815290600101906020018083116105af57829003601f168201915b505050505081526020016006820180546105e59061201a565b80601f01602080910402602001604051908101604052809291908181526020018280546106119061201a565b801561065e5780601f106106335761010080835404028352916020019161065e565b820191906000526020600020905b81548152906001019060200180831161064157829003601f168201915b505050505081526020016007820180546106779061201a565b80601f01602080910402602001604051908101604052809291908181526020018280546106a39061201a565b80156106f05780601f106106c5576101008083540402835291602001916106f0565b820191906000526020600020905b8154815290600101906020018083116106d357829003601f168201915b505050505081526020016008820154815260200160098201548152505091505b50919050565b82600354811061073957604051632555990360e01b815260040160405180910390fd5b60006004858154811061074e5761074e612004565b90600052602060002090600a020160405180610140016040529081600082015481526020016001820160009054906101000a90046001600160a01b03166001600160a01b03166001600160a01b031681526020016002820180546107b19061201a565b80601f01602080910402602001604051908101604052809291908181526020018280546107dd9061201a565b801561082a5780601f106107ff5761010080835404028352916020019161082a565b820191906000526020600020905b81548152906001019060200180831161080d57829003601f168201915b505050505081526020016003820180546108439061201a565b80601f016020809104026020016040519081016040528092919081815260200182805461086f9061201a565b80156108bc5780601f10610891576101008083540402835291602001916108bc565b820191906000526020600020905b81548152906001019060200180831161089f57829003601f168201915b505050505081526020016004820180546108d59061201a565b80601f01602080910402602001604051908101604052809291908181526020018280546109019061201a565b801561094e5780601f106109235761010080835404028352916020019161094e565b820191906000526020600020905b81548152906001019060200180831161093157829003601f168201915b505050505081526020016005820180546109679061201a565b80601f01602080910402602001604051908101604052809291908181526020018280546109939061201a565b80156109e05780601f106109b5576101008083540402835291602001916109e0565b820191906000526020600020905b8154815290600101906020018083116109c357829003601f168201915b505050505081526020016006820180546109f99061201a565b80601f0160208091040260200160405190810160405280929190818152602001828054610a259061201a565b8015610a725780601f10610a4757610100808354040283529160200191610a72565b820191906000526020600020905b815481529060010190602001808311610a5557829003601f168201915b50505050508152602001600782018054610a8b9061201a565b80601f0160208091040260200160405190810160405280929190818152602001828054610ab79061201a565b8015610b045780601f10610ad957610100808354040283529160200191610b04565b820191906000526020600020905b815481529060010190602001808311610ae757829003601f168201915b5050509183525050600882015460208201526009909101546040909101529050600062015180610b348686612065565b610b3e919061207c565b90506001811015610b62576040516383b5c53d60e01b815260040160405180910390fd5b600081610b73846101200151611279565b610b7d919061209e565b9050803414610b9f5760405163c7f7e3ff60e01b815260040160405180910390fd5b610baa87878761197b565b15610bc85760405163920cadb560e01b815260040160405180910390fd5b600087815260056020908152604080832081516060810183523381528084018b81528184018b81528354600180820186559488528688209351600390910290930180546001600160a01b0319166001600160a01b03948516178155915193820193909355915160029092019190915591860151905191169034908381818185875af1925050503d8060008114610c7a576040519150601f19603f3d011682016040523d82523d6000602084013e610c7f565b606091505b5050905080610ca15760405163f285722d60e01b815260040160405180910390fd5b60408051898152336020820152908101889052606081018790524260808201527f8145f5f7785888577f4b907341639304ff8a5ad886ca425f513abe27b44285659060a00160405180910390a15050505050505050565b60606004805480602002602001604051908101604052809291908181526020016000905b828210156110ef5760008481526020908190206040805161014081018252600a86029092018054835260018101546001600160a01b03169383019390935260028301805492939291840191610d709061201a565b80601f0160208091040260200160405190810160405280929190818152602001828054610d9c9061201a565b8015610de95780601f10610dbe57610100808354040283529160200191610de9565b820191906000526020600020905b815481529060010190602001808311610dcc57829003601f168201915b50505050508152602001600382018054610e029061201a565b80601f0160208091040260200160405190810160405280929190818152602001828054610e2e9061201a565b8015610e7b5780601f10610e5057610100808354040283529160200191610e7b565b820191906000526020600020905b815481529060010190602001808311610e5e57829003601f168201915b50505050508152602001600482018054610e949061201a565b80601f0160208091040260200160405190810160405280929190818152602001828054610ec09061201a565b8015610f0d5780601f10610ee257610100808354040283529160200191610f0d565b820191906000526020600020905b815481529060010190602001808311610ef057829003601f168201915b50505050508152602001600582018054610f269061201a565b80601f0160208091040260200160405190810160405280929190818152602001828054610f529061201a565b8015610f9f5780601f10610f7457610100808354040283529160200191610f9f565b820191906000526020600020905b815481529060010190602001808311610f8257829003601f168201915b50505050508152602001600682018054610fb89061201a565b80601f0160208091040260200160405190810160405280929190818152602001828054610fe49061201a565b80156110315780601f1061100657610100808354040283529160200191611031565b820191906000526020600020905b81548152906001019060200180831161101457829003601f168201915b5050505050815260200160078201805461104a9061201a565b80601f01602080910402602001604051908101604052809291908181526020018280546110769061201a565b80156110c35780601f10611098576101008083540402835291602001916110c3565b820191906000526020600020905b8154815290600101906020018083116110a657829003601f168201915b505050505081526020016008820154815260200160098201548152505081526020019060010190610d1c565b50505050905090565b6001546001600160a01b0316331461112357604051631c10506d60e11b815260040160405180910390fd5b6001546040516000916001600160a01b03169047908381818185875af1925050503d8060008114611170576040519150601f19603f3d011682016040523d82523d6000602084013e611175565b606091505b50509050806111975760405163f285722d60e01b815260040160405180910390fd5b50565b6001546001600160a01b031633146111c557604051631c10506d60e11b815260040160405180910390fd5b600255565b60608160035481106111ef57604051632555990360e01b815260040160405180910390fd5b600083815260056020908152604080832080548251818502810185019093528083529193909284015b8282101561126d576000848152602090819020604080516060810182526003860290920180546001600160a01b0316835260018082015484860152600290910154918301919091529083529092019101611218565b50505050915050919050565b60008060006112866112b6565b909250905060008261129983600a6121a3565b6112a3908761209e565b6112ad919061207c565b95945050505050565b6000805460408051633fabe5a360e21b8152905183926001600160a01b0316918391839163feaf968c9160048083019260a09291908290030181865afa158015611304573d6000803e3d6000fd5b505050506040513d601f19601f8201168201806040525081019061132891906121ce565b5050509150506000826001600160a01b031663313ce5676040518163ffffffff1660e01b8152600401602060405180830381865afa15801561136e573d6000803e3d6000fd5b505050506040513d601f19601f82011682018060405250810190611392919061221e565b919560ff90921694509092505050565b60025434146113c4576040516319e7970560e21b815260040160405180910390fd5b60035460408051610140810182528281523360208083019182529282018c8152606083018c9052608083018b905260a083018a905260c0830189905260e08301889052610100830187905261012083018690526004805460018101825560009190915283517f8a35acfbc15ff81a39ae7d344fd709f28e8600b4aa8c65c6b64bfe7fe36bd19b600a90920291820190815592517f8a35acfbc15ff81a39ae7d344fd709f28e8600b4aa8c65c6b64bfe7fe36bd19c820180546001600160a01b0319166001600160a01b0390921691909117905590518051939485946114cf937f8a35acfbc15ff81a39ae7d344fd709f28e8600b4aa8c65c6b64bfe7fe36bd19d019290910190611acb565b50606082015180516114eb916003840191602090910190611acb565b5060808201518051611507916004840191602090910190611acb565b5060a08201518051611523916005840191602090910190611acb565b5060c0820151805161153f916006840191602090910190611acb565b5060e0820151805161155b916007840191602090910190611acb565b506101008201516008820155610120909101516009909101556003805490600061158483612241565b91905055507fa0c4bfdadb448904df95d75b6b9a5559d01fd1e5dcabf5b10f6c358eecfde4c782338c8c8c8c8c8c8c8c426040516115cc9b9a9998979695949392919061225c565b60405180910390a150505050505050505050565b600481815481106115f057600080fd5b60009182526020909120600a90910201805460018201546002830180549294506001600160a01b0390911692916116269061201a565b80601f01602080910402602001604051908101604052809291908181526020018280546116529061201a565b801561169f5780601f106116745761010080835404028352916020019161169f565b820191906000526020600020905b81548152906001019060200180831161168257829003601f168201915b5050505050908060030180546116b49061201a565b80601f01602080910402602001604051908101604052809291908181526020018280546116e09061201a565b801561172d5780601f106117025761010080835404028352916020019161172d565b820191906000526020600020905b81548152906001019060200180831161171057829003601f168201915b5050505050908060040180546117429061201a565b80601f016020809104026020016040519081016040528092919081815260200182805461176e9061201a565b80156117bb5780601f10611790576101008083540402835291602001916117bb565b820191906000526020600020905b81548152906001019060200180831161179e57829003601f168201915b5050505050908060050180546117d09061201a565b80601f01602080910402602001604051908101604052809291908181526020018280546117fc9061201a565b80156118495780601f1061181e57610100808354040283529160200191611849565b820191906000526020600020905b81548152906001019060200180831161182c57829003601f168201915b50505050509080600601805461185e9061201a565b80601f016020809104026020016040519081016040528092919081815260200182805461188a9061201a565b80156118d75780601f106118ac576101008083540402835291602001916118d7565b820191906000526020600020905b8154815290600101906020018083116118ba57829003601f168201915b5050505050908060070180546118ec9061201a565b80601f01602080910402602001604051908101604052809291908181526020018280546119189061201a565b80156119655780601f1061193a57610100808354040283529160200191611965565b820191906000526020600020905b81548152906001019060200180831161194857829003601f168201915b505050505090806008015490806009015490508a565b600083815260056020908152604080832080548251818502810185019093528083528493849084015b828210156119f9576000848152602090819020604080516060810182526003860290920180546001600160a01b03168352600180820154848601526002909101549183019190915290835290920191016119a4565b50505050905060005b8151811015611abd57818181518110611a1d57611a1d612004565b6020026020010151602001518510158015611a555750818181518110611a4557611a45612004565b6020026020010151604001518511155b80611aa55750818181518110611a6d57611a6d612004565b6020026020010151602001518410158015611aa55750818181518110611a9557611a95612004565b6020026020010151604001518411155b15611ab557600192505050611ac4565b600101611a02565b5060009150505b9392505050565b828054611ad79061201a565b90600052602060002090601f016020900481019282611af95760008555611b3f565b82601f10611b1257805160ff1916838001178555611b3f565b82800160010185558215611b3f579182015b82811115611b3f578251825591602001919060010190611b24565b50611b4b929150611b4f565b5090565b5b80821115611b4b5760008155600101611b50565b600060208284031215611b7657600080fd5b5035919050565b6000815180845260005b81811015611ba357602081850181015186830182015201611b87565b81811115611bb5576000602083870101525b50601f01601f19169290920160200192915050565b6000610140825184526020830151611bed60208601826001600160a01b03169052565b506040830151816040860152611c0582860182611b7d565b91505060608301518482036060860152611c1f8282611b7d565b91505060808301518482036080860152611c398282611b7d565b91505060a083015184820360a0860152611c538282611b7d565b91505060c083015184820360c0860152611c6d8282611b7d565b91505060e083015184820360e0860152611c878282611b7d565b6101008581015190870152610120948501519490950193909352509192915050565b602081526000611ac46020830184611bca565b600080600060608486031215611cd157600080fd5b505081359360208301359350604090920135919050565b6000602080830181845280855180835260408601915060408160051b870101925083870160005b82811015611d3d57603f19888603018452611d2b858351611bca565b94509285019290850190600101611d0f565b5092979650505050505050565b602080825282518282018190526000919060409081850190868401855b82811015611d9f57815180516001600160a01b0316855286810151878601528501518585015260609093019290850190600101611d67565b5091979650505050505050565b634e487b7160e01b600052604160045260246000fd5b600082601f830112611dd357600080fd5b813567ffffffffffffffff80821115611dee57611dee611dac565b604051601f8301601f19908116603f01168101908282118183101715611e1657611e16611dac565b81604052838152866020858801011115611e2f57600080fd5b836020870160208301376000602085830101528094505050505092915050565b600080600080600080600080610100898b031215611e6c57600080fd5b883567ffffffffffffffff80821115611e8457600080fd5b611e908c838d01611dc2565b995060208b0135915080821115611ea657600080fd5b611eb28c838d01611dc2565b985060408b0135915080821115611ec857600080fd5b611ed48c838d01611dc2565b975060608b0135915080821115611eea57600080fd5b611ef68c838d01611dc2565b965060808b0135915080821115611f0c57600080fd5b611f188c838d01611dc2565b955060a08b0135915080821115611f2e57600080fd5b50611f3b8b828c01611dc2565b93505060c0890135915060e089013590509295985092959890939650565b8a81526001600160a01b038a16602082015261014060408201819052600090611f848382018c611b7d565b90508281036060840152611f98818b611b7d565b90508281036080840152611fac818a611b7d565b905082810360a0840152611fc08189611b7d565b905082810360c0840152611fd48188611b7d565b905082810360e0840152611fe88187611b7d565b6101008401959095525050610120015298975050505050505050565b634e487b7160e01b600052603260045260246000fd5b600181811c9082168061202e57607f821691505b6020821081141561071057634e487b7160e01b600052602260045260246000fd5b634e487b7160e01b600052601160045260246000fd5b6000828210156120775761207761204f565b500390565b60008261209957634e487b7160e01b600052601260045260246000fd5b500490565b60008160001904831182151516156120b8576120b861204f565b500290565b600181815b808511156120f85781600019048211156120de576120de61204f565b808516156120eb57918102915b93841c93908002906120c2565b509250929050565b60008261210f5750600161219d565b8161211c5750600061219d565b8160018114612132576002811461213c57612158565b600191505061219d565b60ff84111561214d5761214d61204f565b50506001821b61219d565b5060208310610133831016604e8410600b841016171561217b575081810a61219d565b61218583836120bd565b80600019048211156121995761219961204f565b0290505b92915050565b6000611ac48383612100565b805169ffffffffffffffffffff811681146121c957600080fd5b919050565b600080600080600060a086880312156121e657600080fd5b6121ef866121af565b9450602086015193506040860151925060608601519150612212608087016121af565b90509295509295909350565b60006020828403121561223057600080fd5b815160ff81168114611ac457600080fd5b60006000198214156122555761225561204f565b5060010190565b8b81526001600160a01b038b166020820152610160604082018190526000906122878382018d611b7d565b9050828103606084015261229b818c611b7d565b905082810360808401526122af818b611b7d565b905082810360a08401526122c3818a611b7d565b905082810360c08401526122d78189611b7d565b905082810360e08401526122eb8188611b7d565b6101008401969096525050610120810192909252610140909101529897505050505050505056fea2646970667358221220f2ca6d79f4ad6bfdee2e15ca91bef16e15961f0b1bd83efa5cbaa44df41a789964736f6c634300080a0033",
    "linkReferences": {}
  },
  "methodIdentifiers": {
    "addRental(string,string,string,string,string,string,uint256,uint256)": "9982aaeb",
    "admin()": "f851a440",
    "bookDates(uint256,uint256,uint256)": "46e6e5fb",
    "changeListingFee(uint256)": "77f25f6f",
    "convertFromUSD(uint256)": "95b36670",
    "getPrice()": "98d5fdca",
    "getRentalBookings(uint256)": "7eb89724",
    "getRentalInfo(uint256)": "27dc3fbd",
    "getRentals()": "5ea5da20",
    "listingFee()": "6a1b7ecc",
    "priceFeedAddress()": "e0abca0b",
    "rentals(uint256)": "af94a1d1",
    "withdrawBalance()": "5fd8c710"
  },
  "id": 4
}