{
  "abi": [
    {
      "anonymous": false,
      "inputs": [
        {
          "indexed": true,
          "internalType": "address",
          "name": "owner",
          "type": "address"
        },
        {
          "indexed": true,
          "internalType": "address",
          "name": "approved",
          "type": "address"
        },
        {
          "indexed": true,
          "internalType": "uint256",
          "name": "tokenId",
          "type": "uint256"
        }
      ],
      "name": "Approval",
      "type": "event"
    },
    {
      "anonymous": false,
      "inputs": [
        {
          "indexed": true,
          "internalType": "address",
          "name": "owner",
          "type": "address"
        },
        {
          "indexed": true,
          "internalType": "address",
          "name": "operator",
          "type": "address"
        },
        {
          "indexed": false,
          "internalType": "bool",
          "name": "approved",
          "type": "bool"
        }
      ],
      "name": "ApprovalForAll",
      "type": "event"
    },
    {
      "anonymous": false,
      "inputs": [
        {
          "indexed": false,
          "internalType": "uint8",
          "name": "version",
          "type": "uint8"
        }
      ],
      "name": "Initialized",
      "type": "event"
    },
    {
      "anonymous": false,
      "inputs": [
        {
          "indexed": true,
          "internalType": "address",
          "name": "purchaser",
          "type": "address"
        },
        {
          "indexed": true,
          "internalType": "uint256",
          "name": "id",
          "type": "uint256"
        }
      ],
      "name": "NFTMinted",
      "type": "event"
    },
    {
      "anonymous": false,
      "inputs": [
        {
          "indexed": true,
          "internalType": "address",
          "name": "previousOwner",
          "type": "address"
        },
        {
          "indexed": true,
          "internalType": "address",
          "name": "newOwner",
          "type": "address"
        }
      ],
      "name": "OwnershipTransferred",
      "type": "event"
    },
    {
      "anonymous": false,
      "inputs": [
        {
          "indexed": false,
          "internalType": "address",
          "name": "account",
          "type": "address"
        }
      ],
      "name": "Paused",
      "type": "event"
    },
    {
      "anonymous": false,
      "inputs": [
        {
          "indexed": true,
          "internalType": "address",
          "name": "from",
          "type": "address"
        },
        {
          "indexed": true,
          "internalType": "address",
          "name": "to",
          "type": "address"
        },
        {
          "indexed": true,
          "internalType": "uint256",
          "name": "tokenId",
          "type": "uint256"
        }
      ],
      "name": "Transfer",
      "type": "event"
    },
    {
      "anonymous": false,
      "inputs": [
        {
          "indexed": false,
          "internalType": "address",
          "name": "account",
          "type": "address"
        }
      ],
      "name": "Unpaused",
      "type": "event"
    },
    {
      "inputs": [
        {
          "internalType": "address",
          "name": "to",
          "type": "address"
        },
        {
          "internalType": "uint256",
          "name": "tokenId",
          "type": "uint256"
        }
      ],
      "name": "approve",
      "outputs": [],
      "stateMutability": "nonpayable",
      "type": "function"
    },
    {
      "inputs": [
        {
          "internalType": "address",
          "name": "owner",
          "type": "address"
        }
      ],
      "name": "balanceOf",
      "outputs": [
        {
          "internalType": "uint256",
          "name": "",
          "type": "uint256"
        }
      ],
      "stateMutability": "view",
      "type": "function"
    },
    {
      "inputs": [
        {
          "internalType": "uint256",
          "name": "tokenId",
          "type": "uint256"
        }
      ],
      "name": "getApproved",
      "outputs": [
        {
          "internalType": "address",
          "name": "",
          "type": "address"
        }
      ],
      "stateMutability": "view",
      "type": "function"
    },
    {
      "inputs": [],
      "name": "getCost",
      "outputs": [
        {
          "internalType": "uint256",
          "name": "",
          "type": "uint256"
        }
      ],
      "stateMutability": "view",
      "type": "function"
    },
    {
      "inputs": [],
      "name": "getOutstandingSupply",
      "outputs": [
        {
          "internalType": "uint256",
          "name": "",
          "type": "uint256"
        }
      ],
      "stateMutability": "view",
      "type": "function"
    },
    {
      "inputs": [],
      "name": "getWallet",
      "outputs": [
        {
          "internalType": "address payable",
          "name": "",
          "type": "address"
        }
      ],
      "stateMutability": "view",
      "type": "function"
    },
    {
      "inputs": [
        {
          "internalType": "address",
          "name": "initWallet",
          "type": "address"
        },
        {
          "internalType": "uint256",
          "name": "initMintAmount",
          "type": "uint256"
        }
      ],
      "name": "initMint",
      "outputs": [],
      "stateMutability": "nonpayable",
      "type": "function"
    },
    {
      "inputs": [
        {
          "internalType": "address payable",
          "name": "_wallet",
          "type": "address"
        },
        {
          "internalType": "uint256",
          "name": "initCost",
          "type": "uint256"
        }
      ],
      "name": "initialize",
      "outputs": [],
      "stateMutability": "nonpayable",
      "type": "function"
    },
    {
      "inputs": [
        {
          "internalType": "address",
          "name": "owner",
          "type": "address"
        },
        {
          "internalType": "address",
          "name": "operator",
          "type": "address"
        }
      ],
      "name": "isApprovedForAll",
      "outputs": [
        {
          "internalType": "bool",
          "name": "",
          "type": "bool"
        }
      ],
      "stateMutability": "view",
      "type": "function"
    },
    {
      "inputs": [],
      "name": "maxSupply",
      "outputs": [
        {
          "internalType": "uint256",
          "name": "",
          "type": "uint256"
        }
      ],
      "stateMutability": "view",
      "type": "function"
    },
    {
      "inputs": [
        {
          "internalType": "uint256",
          "name": "_mintAmount",
          "type": "uint256"
        }
      ],
      "name": "mint",
      "outputs": [],
      "stateMutability": "payable",
      "type": "function"
    },
    {
      "inputs": [],
      "name": "name",
      "outputs": [
        {
          "internalType": "string",
          "name": "",
          "type": "string"
        }
      ],
      "stateMutability": "view",
      "type": "function"
    },
    {
      "inputs": [],
      "name": "owner",
      "outputs": [
        {
          "internalType": "address",
          "name": "",
          "type": "address"
        }
      ],
      "stateMutability": "view",
      "type": "function"
    },
    {
      "inputs": [
        {
          "internalType": "uint256",
          "name": "tokenId",
          "type": "uint256"
        }
      ],
      "name": "ownerOf",
      "outputs": [
        {
          "internalType": "address",
          "name": "",
          "type": "address"
        }
      ],
      "stateMutability": "view",
      "type": "function"
    },
    {
      "inputs": [],
      "name": "pause",
      "outputs": [],
      "stateMutability": "nonpayable",
      "type": "function"
    },
    {
      "inputs": [],
      "name": "paused",
      "outputs": [
        {
          "internalType": "bool",
          "name": "",
          "type": "bool"
        }
      ],
      "stateMutability": "view",
      "type": "function"
    },
    {
      "inputs": [],
      "name": "renounceOwnership",
      "outputs": [],
      "stateMutability": "nonpayable",
      "type": "function"
    },
    {
      "inputs": [
        {
          "internalType": "uint256",
          "name": "",
          "type": "uint256"
        },
        {
          "internalType": "uint256",
          "name": "value",
          "type": "uint256"
        }
      ],
      "name": "royaltyInfo",
      "outputs": [
        {
          "internalType": "address",
          "name": "receiver",
          "type": "address"
        },
        {
          "internalType": "uint256",
          "name": "royaltyAmount",
          "type": "uint256"
        }
      ],
      "stateMutability": "view",
      "type": "function"
    },
    {
      "inputs": [
        {
          "internalType": "address",
          "name": "from",
          "type": "address"
        },
        {
          "internalType": "address",
          "name": "to",
          "type": "address"
        },
        {
          "internalType": "uint256",
          "name": "tokenId",
          "type": "uint256"
        }
      ],
      "name": "safeTransferFrom",
      "outputs": [],
      "stateMutability": "nonpayable",
      "type": "function"
    },
    {
      "inputs": [
        {
          "internalType": "address",
          "name": "from",
          "type": "address"
        },
        {
          "internalType": "address",
          "name": "to",
          "type": "address"
        },
        {
          "internalType": "uint256",
          "name": "tokenId",
          "type": "uint256"
        },
        {
          "internalType": "bytes",
          "name": "data",
          "type": "bytes"
        }
      ],
      "name": "safeTransferFrom",
      "outputs": [],
      "stateMutability": "nonpayable",
      "type": "function"
    },
    {
      "inputs": [
        {
          "internalType": "address",
          "name": "operator",
          "type": "address"
        },
        {
          "internalType": "bool",
          "name": "approved",
          "type": "bool"
        }
      ],
      "name": "setApprovalForAll",
      "outputs": [],
      "stateMutability": "nonpayable",
      "type": "function"
    },
    {
      "inputs": [
        {
          "internalType": "string",
          "name": "_newBaseURI",
          "type": "string"
        }
      ],
      "name": "setBaseURI",
      "outputs": [],
      "stateMutability": "nonpayable",
      "type": "function"
    },
    {
      "inputs": [
        {
          "internalType": "uint256",
          "name": "_newCost",
          "type": "uint256"
        }
      ],
      "name": "setCost",
      "outputs": [],
      "stateMutability": "nonpayable",
      "type": "function"
    },
    {
      "inputs": [
        {
          "internalType": "uint256",
          "name": "_newMaxMintAmount",
          "type": "uint256"
        }
      ],
      "name": "setMaxMintAmount",
      "outputs": [],
      "stateMutability": "nonpayable",
      "type": "function"
    },
    {
      "inputs": [
        {
          "internalType": "uint256",
          "name": "_newMaxSupply",
          "type": "uint256"
        }
      ],
      "name": "setMaxSupply",
      "outputs": [],
      "stateMutability": "nonpayable",
      "type": "function"
    },
    {
      "inputs": [
        {
          "internalType": "string",
          "name": "_notRevealedURI",
          "type": "string"
        }
      ],
      "name": "setNotRevealedURI",
      "outputs": [],
      "stateMutability": "nonpayable",
      "type": "function"
    },
    {
      "inputs": [
        {
          "internalType": "bool",
          "name": "_revealed",
          "type": "bool"
        }
      ],
      "name": "setRevealed",
      "outputs": [],
      "stateMutability": "nonpayable",
      "type": "function"
    },
    {
      "inputs": [
        {
          "internalType": "address payable",
          "name": "_wallet",
          "type": "address"
        }
      ],
      "name": "setWallet",
      "outputs": [],
      "stateMutability": "nonpayable",
      "type": "function"
    },
    {
      "inputs": [
        {
          "internalType": "bytes4",
          "name": "interfaceId",
          "type": "bytes4"
        }
      ],
      "name": "supportsInterface",
      "outputs": [
        {
          "internalType": "bool",
          "name": "",
          "type": "bool"
        }
      ],
      "stateMutability": "view",
      "type": "function"
    },
    {
      "inputs": [],
      "name": "symbol",
      "outputs": [
        {
          "internalType": "string",
          "name": "",
          "type": "string"
        }
      ],
      "stateMutability": "view",
      "type": "function"
    },
    {
      "inputs": [
        {
          "internalType": "uint256",
          "name": "index",
          "type": "uint256"
        }
      ],
      "name": "tokenByIndex",
      "outputs": [
        {
          "internalType": "uint256",
          "name": "",
          "type": "uint256"
        }
      ],
      "stateMutability": "view",
      "type": "function"
    },
    {
      "inputs": [
        {
          "internalType": "address",
          "name": "owner",
          "type": "address"
        },
        {
          "internalType": "uint256",
          "name": "index",
          "type": "uint256"
        }
      ],
      "name": "tokenOfOwnerByIndex",
      "outputs": [
        {
          "internalType": "uint256",
          "name": "",
          "type": "uint256"
        }
      ],
      "stateMutability": "view",
      "type": "function"
    },
    {
      "inputs": [
        {
          "internalType": "uint256",
          "name": "tokenId",
          "type": "uint256"
        }
      ],
      "name": "tokenURI",
      "outputs": [
        {
          "internalType": "string",
          "name": "",
          "type": "string"
        }
      ],
      "stateMutability": "view",
      "type": "function"
    },
    {
      "inputs": [],
      "name": "totalSupply",
      "outputs": [
        {
          "internalType": "uint256",
          "name": "",
          "type": "uint256"
        }
      ],
      "stateMutability": "view",
      "type": "function"
    },
    {
      "inputs": [
        {
          "internalType": "address",
          "name": "from",
          "type": "address"
        },
        {
          "internalType": "address",
          "name": "to",
          "type": "address"
        },
        {
          "internalType": "uint256",
          "name": "tokenId",
          "type": "uint256"
        }
      ],
      "name": "transferFrom",
      "outputs": [],
      "stateMutability": "nonpayable",
      "type": "function"
    },
    {
      "inputs": [
        {
          "internalType": "address",
          "name": "newOwner",
          "type": "address"
        }
      ],
      "name": "transferOwnership",
      "outputs": [],
      "stateMutability": "nonpayable",
      "type": "function"
    },
    {
      "inputs": [],
      "name": "unpause",
      "outputs": [],
      "stateMutability": "nonpayable",
      "type": "function"
    },
    {
      "inputs": [],
      "name": "version",
      "outputs": [
        {
          "internalType": "uint256",
          "name": "",
          "type": "uint256"
        }
      ],
      "stateMutability": "pure",
      "type": "function"
    },
    {
      "inputs": [
        {
          "internalType": "address",
          "name": "_owner",
          "type": "address"
        }
      ],
      "name": "walletOfOwner",
      "outputs": [
        {
          "internalType": "uint256[]",
          "name": "",
          "type": "uint256[]"
        }
      ],
      "stateMutability": "view",
      "type": "function"
    },
    {
      "inputs": [
        {
          "internalType": "address payable",
          "name": "_to",
          "type": "address"
        }
      ],
      "name": "withdraw",
      "outputs": [],
      "stateMutability": "payable",
      "type": "function"
    }
  ],
  "bytecode": {
    "object": "0x60806040523480156200001157600080fd5b506040805180820182526008815267151a194812195c9960c21b60208083019182528351808501909452600484526311d3d05560e21b9084015281519192916200005e91600191620000ec565b50805162000074906002906020840190620000ec565b5050600c805460ff19169055506200008c3362000092565b620001cf565b600c80546001600160a01b03838116610100818102610100600160a81b031985161790945560405193909204169182907f8be0079c531659141344cd1fd0a4f28419497f9722a3daafe3b4186f6b6457e090600090a35050565b828054620000fa9062000192565b90600052602060002090601f0160209004810192826200011e576000855562000169565b82601f106200013957805160ff191683800117855562000169565b8280016001018555821562000169579182015b82811115620001695782518255916020019190600101906200014c565b50620001779291506200017b565b5090565b5b808211156200017757600081556001016200017c565b600181811c90821680620001a757607f821691505b60208210811415620001c957634e487b7160e01b600052602260045260246000fd5b50919050565b61253b80620001df6000396000f3fe60806040526004361061023b5760003560e01c80636352211e1161012e578063bd3e19d4116100ab578063deaa59df1161006f578063deaa59df14610683578063e0a80853146106a3578063e985e9c5146106c3578063f2c4ce1e1461070c578063f2fde38b1461072c57600080fd5b8063bd3e19d414610603578063c87b56dd14610618578063cd6dc68714610638578063d1521b1114610658578063d5abeb011461066d57600080fd5b80638da5cb5b116100f25780638da5cb5b1461057857806395d89b411461059b578063a0712d68146105b0578063a22cb465146105c3578063b88d4fde146105e357600080fd5b80636352211e146104ee5780636f8b44b01461050e57806370a082311461052e578063715018a61461054e5780638456cb591461056357600080fd5b80632f745c59116101bc5780634f6ccce7116101805780634f6ccce71461046f57806351cff8d91461048f57806354fd4d50146104a257806355f804b3146104b65780635c975abb146104d657600080fd5b80632f745c59146103cd5780633f4ba83a146103ed57806342842e0e14610402578063438b63001461042257806344a0d68a1461044f57600080fd5b80631329960411610203578063132996041461031157806318160ddd1461032f5780631a955b521461034e57806323b872dd1461036e5780632a55205a1461038e57600080fd5b806301ffc9a71461024057806306fdde0314610275578063081812fc14610297578063088a4ed0146102cf578063095ea7b3146102f1575b600080fd5b34801561024c57600080fd5b5061026061025b366004611eeb565b61074c565b60405190151581526020015b60405180910390f35b34801561028157600080fd5b5061028a61075d565b60405161026c9190611f60565b3480156102a357600080fd5b506102b76102b2366004611f73565b6107ef565b6040516001600160a01b03909116815260200161026c565b3480156102db57600080fd5b506102ef6102ea366004611f73565b610816565b005b3480156102fd57600080fd5b506102ef61030c366004611fa1565b610823565b34801561031d57600080fd5b506014546001600160a01b03166102b7565b34801561033b57600080fd5b506009545b60405190815260200161026c565b34801561035a57600080fd5b506102ef610369366004611fa1565b61093e565b34801561037a57600080fd5b506102ef610389366004611fcd565b61096b565b34801561039a57600080fd5b506103ae6103a936600461200e565b61099c565b604080516001600160a01b03909316835260208301919091520161026c565b3480156103d957600080fd5b506103406103e8366004611fa1565b6109f1565b3480156103f957600080fd5b506102ef610a87565b34801561040e57600080fd5b506102ef61041d366004611fcd565b610a99565b34801561042e57600080fd5b5061044261043d366004612030565b610ab4565b60405161026c919061204d565b34801561045b57600080fd5b506102ef61046a366004611f73565b610b56565b34801561047b57600080fd5b5061034061048a366004611f73565b610b63565b6102ef61049d366004612030565b610bf6565b3480156104ae57600080fd5b506002610340565b3480156104c257600080fd5b506102ef6104d136600461211d565b610c36565b3480156104e257600080fd5b50600c5460ff16610260565b3480156104fa57600080fd5b506102b7610509366004611f73565b610c55565b34801561051a57600080fd5b506102ef610529366004611f73565b610cb5565b34801561053a57600080fd5b50610340610549366004612030565b610cc2565b34801561055a57600080fd5b506102ef610d48565b34801561056f57600080fd5b506102ef610d5a565b34801561058457600080fd5b50600c5461010090046001600160a01b03166102b7565b3480156105a757600080fd5b5061028a610d6a565b6102ef6105be366004611f73565b610d79565b3480156105cf57600080fd5b506102ef6105de36600461217b565b610e2b565b3480156105ef57600080fd5b506102ef6105fe3660046121b0565b610e36565b34801561060f57600080fd5b50600f54610340565b34801561062457600080fd5b5061028a610633366004611f73565b610e6e565b34801561064457600080fd5b506102ef610653366004611fa1565b610fe5565b34801561066457600080fd5b50610340611060565b34801561067957600080fd5b5061034060105481565b34801561068f57600080fd5b506102ef61069e366004612030565b611070565b3480156106af57600080fd5b506102ef6106be366004612230565b61109a565b3480156106cf57600080fd5b506102606106de36600461224b565b6001600160a01b03918216600090815260066020908152604080832093909416825291909152205460ff1690565b34801561071857600080fd5b506102ef61072736600461211d565b6110b5565b34801561073857600080fd5b506102ef610747366004612030565b6110d0565b600061075782611149565b92915050565b60606001805461076c90612284565b80601f016020809104026020016040519081016040528092919081815260200182805461079890612284565b80156107e55780601f106107ba576101008083540402835291602001916107e5565b820191906000526020600020905b8154815290600101906020018083116107c857829003601f168201915b5050505050905090565b60006107fa8261116e565b506000908152600560205260409020546001600160a01b031690565b61081e6111cd565b601155565b600061082e82610c55565b9050806001600160a01b0316836001600160a01b031614156108a15760405162461bcd60e51b815260206004820152602160248201527f4552433732313a20617070726f76616c20746f2063757272656e74206f776e656044820152603960f91b60648201526084015b60405180910390fd5b336001600160a01b03821614806108bd57506108bd81336106de565b61092f5760405162461bcd60e51b815260206004820152603e60248201527f4552433732313a20617070726f76652063616c6c6572206973206e6f7420746f60448201527f6b656e206f776e6572206e6f7220617070726f76656420666f7220616c6c00006064820152608401610898565b610939838361122d565b505050565b6109466111cd565b60015b818111610939576109598361129b565b80610963816122d5565b915050610949565b61097533826112f1565b6109915760405162461bcd60e51b8152600401610898906122f0565b610939838383611370565b60408051808201909152600b546001600160a01b038116808352600160a01b90910462ffffff16602083018190529091600091612710906109dd908661233e565b6109e79190612373565b9150509250929050565b60006109fc83610cc2565b8210610a5e5760405162461bcd60e51b815260206004820152602b60248201527f455243373231456e756d657261626c653a206f776e657220696e646578206f7560448201526a74206f6620626f756e647360a81b6064820152608401610898565b506001600160a01b03919091166000908152600760209081526040808320938352929052205490565b610a8f6111cd565b610a97611517565b565b61093983838360405180602001604052806000815250610e36565b60606000610ac183610cc2565b905060008167ffffffffffffffff811115610ade57610ade612091565b604051908082528060200260200182016040528015610b07578160200160208202803683370190505b50905060005b82811015610b4e57610b1f85826109f1565b828281518110610b3157610b31612387565b602090810291909101015280610b46816122d5565b915050610b0d565b509392505050565b610b5e6111cd565b600f55565b6000610b6e60095490565b8210610bd15760405162461bcd60e51b815260206004820152602c60248201527f455243373231456e756d657261626c653a20676c6f62616c20696e646578206f60448201526b7574206f6620626f756e647360a01b6064820152608401610898565b60098281548110610be457610be4612387565b90600052602060002001549050919050565b610bfe6111cd565b60405147906001600160a01b0383169082156108fc029083906000818181858888f19350505050158015610939573d6000803e3d6000fd5b610c3e6111cd565b8051610c5190600e906020840190611e3c565b5050565b6000818152600360205260408120546001600160a01b0316806107575760405162461bcd60e51b8152602060048201526018602482015277115490cdcc8c4e881a5b9d985b1a59081d1bdad95b88125160421b6044820152606401610898565b610cbd6111cd565b601055565b60006001600160a01b038216610d2c5760405162461bcd60e51b815260206004820152602960248201527f4552433732313a2061646472657373207a65726f206973206e6f7420612076616044820152683634b21037bbb732b960b91b6064820152608401610898565b506001600160a01b031660009081526004602052604090205490565b610d506111cd565b610a976000611569565b610d626111cd565b610a976115c3565b60606002805461076c90612284565b6000610d8460095490565b9050610d92600c5460ff1690565b15610d9c57600080fd5b60008211610da957600080fd5b601154821115610db857600080fd5b601054610dc58284611600565b1115610dd057600080fd5b600f54600090610de0908461160c565b600f54909150610df0908461160c565b341015610dfc57600080fd5b60015b838111610e2157610e0f3361129b565b80610e19816122d5565b915050610dff565b5061093981611618565b610c51338383611652565b610e4033836112f1565b610e5c5760405162461bcd60e51b8152600401610898906122f0565b610e6884848484611721565b50505050565b6000818152600360205260409020546060906001600160a01b0316610eed5760405162461bcd60e51b815260206004820152602f60248201527f4552433732314d657461646174613a2055524920717565727920666f72206e6f60448201526e3732bc34b9ba32b73a103a37b5b2b760891b6064820152608401610898565b60125460ff16610f895760138054610f0490612284565b80601f0160208091040260200160405190810160405280929190818152602001828054610f3090612284565b8015610f7d5780601f10610f5257610100808354040283529160200191610f7d565b820191906000526020600020905b815481529060010190602001808311610f6057829003601f168201915b50505050509050919050565b6000610f93611754565b90506000815111610fb35760405180602001604052806000815250610fde565b80610fbd84611763565b604051602001610fce92919061239d565b6040516020818303038152906040525b9392505050565b610ffd60405180602001604052806000815250610c36565b61101e6040518060600160405280602481526020016124e2602491396110b5565b600f819055612710601055601460118190556012805460ff1916905580546001600160a01b0319166001600160a01b038416179055600d805460010190555050565b600061106b60095490565b905090565b6110786111cd565b601480546001600160a01b0319166001600160a01b0392909216919091179055565b6110a26111cd565b6012805460ff1916911515919091179055565b6110bd6111cd565b8051610c51906013906020840190611e3c565b6110d86111cd565b6001600160a01b03811661113d5760405162461bcd60e51b815260206004820152602660248201527f4f776e61626c653a206e6577206f776e657220697320746865207a65726f206160448201526564647265737360d01b6064820152608401610898565b61114681611569565b50565b60006001600160e01b0319821663780e9d6360e01b1480610757575061075782611861565b6000818152600360205260409020546001600160a01b03166111465760405162461bcd60e51b8152602060048201526018602482015277115490cdcc8c4e881a5b9d985b1a59081d1bdad95b88125160421b6044820152606401610898565b600c546001600160a01b03610100909104163314610a975760405162461bcd60e51b815260206004820181905260248201527f4f776e61626c653a2063616c6c6572206973206e6f7420746865206f776e65726044820152606401610898565b600081815260056020526040902080546001600160a01b0319166001600160a01b038416908117909155819061126282610c55565b6001600160a01b03167f8c5be1e5ebec7d5bd14f71427d1e84f3dd0314c0f7b2291e5b200ac8c7c3b92560405160405180910390a45050565b60006112a6600d5490565b90506112b6600d80546001019055565b6112c082826118b1565b604051819033907f4cc0a9c4a99ddc700de1af2c9f916a7cbfdb71f14801ccff94061ad1ef8a804090600090a35050565b6000806112fd83610c55565b9050806001600160a01b0316846001600160a01b0316148061134457506001600160a01b0380821660009081526006602090815260408083209388168352929052205460ff165b806113685750836001600160a01b031661135d846107ef565b6001600160a01b0316145b949350505050565b826001600160a01b031661138382610c55565b6001600160a01b0316146113e75760405162461bcd60e51b815260206004820152602560248201527f4552433732313a207472616e736665722066726f6d20696e636f72726563742060448201526437bbb732b960d91b6064820152608401610898565b6001600160a01b0382166114495760405162461bcd60e51b8152602060048201526024808201527f4552433732313a207472616e7366657220746f20746865207a65726f206164646044820152637265737360e01b6064820152608401610898565b6114548383836118cb565b61145f60008261122d565b6001600160a01b03831660009081526004602052604081208054600192906114889084906123dc565b90915550506001600160a01b03821660009081526004602052604081208054600192906114b69084906123f3565b909155505060008181526003602052604080822080546001600160a01b0319166001600160a01b0386811691821790925591518493918716917fddf252ad1be2c89b69c2b068fc378daa952ba7f163c4a11628f55a4df523b3ef91a4505050565b61151f6118e6565b600c805460ff191690557f5db9ee0a495bf2e6ff9c91a7834c1ba4fdd244a5e8aa4e537bd38aeae4b073aa335b6040516001600160a01b03909116815260200160405180910390a1565b600c80546001600160a01b03838116610100818102610100600160a81b031985161790945560405193909204169182907f8be0079c531659141344cd1fd0a4f28419497f9722a3daafe3b4186f6b6457e090600090a35050565b6115cb61192f565b600c805460ff191660011790557f62e78cea01bee320cd4e420270b5ea74000d11b0c9f74754ebdbfc544b05a25861154c3390565b6000610fde82846123f3565b6000610fde828461233e565b6014546040516001600160a01b039091169082156108fc029083906000818181858888f19350505050158015610c51573d6000803e3d6000fd5b816001600160a01b0316836001600160a01b031614156116b45760405162461bcd60e51b815260206004820152601960248201527f4552433732313a20617070726f766520746f2063616c6c6572000000000000006044820152606401610898565b6001600160a01b03838116600081815260066020908152604080832094871680845294825291829020805460ff191686151590811790915591519182527f17307eab39ab6107e8899845ad3d59bd9653f200f220920489ca2b5937696c31910160405180910390a3505050565b61172c848484611370565b61173884848484611975565b610e685760405162461bcd60e51b81526004016108989061240b565b6060600e805461076c90612284565b6060816117875750506040805180820190915260018152600360fc1b602082015290565b8160005b81156117b1578061179b816122d5565b91506117aa9050600a83612373565b915061178b565b60008167ffffffffffffffff8111156117cc576117cc612091565b6040519080825280601f01601f1916602001820160405280156117f6576020820181803683370190505b5090505b84156113685761180b6001836123dc565b9150611818600a8661245d565b6118239060306123f3565b60f81b81838151811061183857611838612387565b60200101906001600160f81b031916908160001a90535061185a600a86612373565b94506117fa565b60006001600160e01b031982166380ac58cd60e01b148061189257506001600160e01b03198216635b5e139f60e01b145b8061075757506301ffc9a760e01b6001600160e01b0319831614610757565b610c51828260405180602001604052806000815250611a73565b600c5460ff16156118db57600080fd5b610939838383611aa6565b600c5460ff16610a975760405162461bcd60e51b815260206004820152601460248201527314185d5cd8589b194e881b9bdd081c185d5cd95960621b6044820152606401610898565b600c5460ff1615610a975760405162461bcd60e51b815260206004820152601060248201526f14185d5cd8589b194e881c185d5cd95960821b6044820152606401610898565b60006001600160a01b0384163b15611a6857604051630a85bd0160e11b81526001600160a01b0385169063150b7a02906119b9903390899088908890600401612471565b6020604051808303816000875af19250505080156119f4575060408051601f3d908101601f191682019092526119f1918101906124ae565b60015b611a4e573d808015611a22576040519150601f19603f3d011682016040523d82523d6000602084013e611a27565b606091505b508051611a465760405162461bcd60e51b81526004016108989061240b565b805181602001fd5b6001600160e01b031916630a85bd0160e11b149050611368565b506001949350505050565b611a7d8383611b5e565b611a8a6000848484611975565b6109395760405162461bcd60e51b81526004016108989061240b565b6001600160a01b038316611b0157611afc81600980546000838152600a60205260408120829055600182018355919091527f6e1540171b6c0c960b71a7020d9f60077f6af931a8bbf590da0223dacf75c7af0155565b611b24565b816001600160a01b0316836001600160a01b031614611b2457611b248382611cac565b6001600160a01b038216611b3b5761093981611d49565b826001600160a01b0316826001600160a01b031614610939576109398282611df8565b6001600160a01b038216611bb45760405162461bcd60e51b815260206004820181905260248201527f4552433732313a206d696e7420746f20746865207a65726f20616464726573736044820152606401610898565b6000818152600360205260409020546001600160a01b031615611c195760405162461bcd60e51b815260206004820152601c60248201527f4552433732313a20746f6b656e20616c7265616479206d696e746564000000006044820152606401610898565b611c25600083836118cb565b6001600160a01b0382166000908152600460205260408120805460019290611c4e9084906123f3565b909155505060008181526003602052604080822080546001600160a01b0319166001600160a01b03861690811790915590518392907fddf252ad1be2c89b69c2b068fc378daa952ba7f163c4a11628f55a4df523b3ef908290a45050565b60006001611cb984610cc2565b611cc391906123dc565b600083815260086020526040902054909150808214611d16576001600160a01b03841660009081526007602090815260408083208584528252808320548484528184208190558352600890915290208190555b5060009182526008602090815260408084208490556001600160a01b039094168352600781528383209183525290812055565b600954600090611d5b906001906123dc565b6000838152600a602052604081205460098054939450909284908110611d8357611d83612387565b906000526020600020015490508060098381548110611da457611da4612387565b6000918252602080832090910192909255828152600a90915260408082208490558582528120556009805480611ddc57611ddc6124cb565b6001900381819060005260206000200160009055905550505050565b6000611e0383610cc2565b6001600160a01b039093166000908152600760209081526040808320868452825280832085905593825260089052919091209190915550565b828054611e4890612284565b90600052602060002090601f016020900481019282611e6a5760008555611eb0565b82601f10611e8357805160ff1916838001178555611eb0565b82800160010185558215611eb0579182015b82811115611eb0578251825591602001919060010190611e95565b50611ebc929150611ec0565b5090565b5b80821115611ebc5760008155600101611ec1565b6001600160e01b03198116811461114657600080fd5b600060208284031215611efd57600080fd5b8135610fde81611ed5565b60005b83811015611f23578181015183820152602001611f0b565b83811115610e685750506000910152565b60008151808452611f4c816020860160208601611f08565b601f01601f19169290920160200192915050565b602081526000610fde6020830184611f34565b600060208284031215611f8557600080fd5b5035919050565b6001600160a01b038116811461114657600080fd5b60008060408385031215611fb457600080fd5b8235611fbf81611f8c565b946020939093013593505050565b600080600060608486031215611fe257600080fd5b8335611fed81611f8c565b92506020840135611ffd81611f8c565b929592945050506040919091013590565b6000806040838503121561202157600080fd5b50508035926020909101359150565b60006020828403121561204257600080fd5b8135610fde81611f8c565b6020808252825182820181905260009190848201906040850190845b8181101561208557835183529284019291840191600101612069565b50909695505050505050565b634e487b7160e01b600052604160045260246000fd5b600067ffffffffffffffff808411156120c2576120c2612091565b604051601f8501601f19908116603f011681019082821181831017156120ea576120ea612091565b8160405280935085815286868601111561210357600080fd5b858560208301376000602087830101525050509392505050565b60006020828403121561212f57600080fd5b813567ffffffffffffffff81111561214657600080fd5b8201601f8101841361215757600080fd5b611368848235602084016120a7565b8035801515811461217657600080fd5b919050565b6000806040838503121561218e57600080fd5b823561219981611f8c565b91506121a760208401612166565b90509250929050565b600080600080608085870312156121c657600080fd5b84356121d181611f8c565b935060208501356121e181611f8c565b925060408501359150606085013567ffffffffffffffff81111561220457600080fd5b8501601f8101871361221557600080fd5b612224878235602084016120a7565b91505092959194509250565b60006020828403121561224257600080fd5b610fde82612166565b6000806040838503121561225e57600080fd5b823561226981611f8c565b9150602083013561227981611f8c565b809150509250929050565b600181811c9082168061229857607f821691505b602082108114156122b957634e487b7160e01b600052602260045260246000fd5b50919050565b634e487b7160e01b600052601160045260246000fd5b60006000198214156122e9576122e96122bf565b5060010190565b6020808252602e908201527f4552433732313a2063616c6c6572206973206e6f7420746f6b656e206f776e6560408201526d1c881b9bdc88185c1c1c9bdd995960921b606082015260800190565b6000816000190483118215151615612358576123586122bf565b500290565b634e487b7160e01b600052601260045260246000fd5b6000826123825761238261235d565b500490565b634e487b7160e01b600052603260045260246000fd5b600083516123af818460208801611f08565b8351908301906123c3818360208801611f08565b64173539b7b760d91b9101908152600501949350505050565b6000828210156123ee576123ee6122bf565b500390565b60008219821115612406576124066122bf565b500190565b60208082526032908201527f4552433732313a207472616e7366657220746f206e6f6e20455243373231526560408201527131b2b4bb32b91034b6b83632b6b2b73a32b960711b606082015260800190565b60008261246c5761246c61235d565b500690565b6001600160a01b03858116825284166020820152604081018390526080606082018190526000906124a490830184611f34565b9695505050505050565b6000602082840312156124c057600080fd5b8151610fde81611ed5565b634e487b7160e01b600052603160045260246000fdfe68747470733a2f2f77696c64636172642d6261792e76657263656c2e6170702f6170692fa2646970667358221220f99587db101a36681da3e4641140de8e557bb0086645fc608a1f65ea803a627e64736f6c634300080a0033",
    "linkReferences": {}
  },
  "methodIdentifiers": {
    "approve(address,uint256)": "095ea7b3",
    "balanceOf(address)": "70a08231",
    "getApproved(uint256)": "081812fc",
    "getCost()": "bd3e19d4",
    "getOutstandingSupply()": "d1521b11",
    "getWallet()": "13299604",
    "initMint(address,uint256)": "1a955b52",
    "initialize(address,uint256)": "cd6dc687",
    "isApprovedForAll(address,address)": "e985e9c5",
    "maxSupply()": "d5abeb01",
    "mint(uint256)": "a0712d68",
    "name()": "06fdde03",
    "owner()": "8da5cb5b",
    "ownerOf(uint256)": "6352211e",
    "pause()": "8456cb59",
    "paused()": "5c975abb",
    "renounceOwnership()": "715018a6",
    "royaltyInfo(uint256,uint256)": "2a55205a",
    "safeTransferFrom(address,address,uint256)": "42842e0e",
    "safeTransferFrom(address,address,uint256,bytes)": "b88d4fde",
    "setApprovalForAll(address,bool)": "a22cb465",
    "setBaseURI(string)": "55f804b3",
    "setCost(uint256)": "44a0d68a",
    "setMaxMintAmount(uint256)": "088a4ed0",
    "setMaxSupply(uint256)": "6f8b44b0",
    "setNotRevealedURI(string)": "f2c4ce1e",
    "setRevealed(bool)": "e0a80853",
    "setWallet(address)": "deaa59df",
    "supportsInterface(bytes4)": "01ffc9a7",
    "symbol()": "95d89b41",
    "tokenByIndex(uint256)": "4f6ccce7",
    "tokenOfOwnerByIndex(address,uint256)": "2f745c59",
    "tokenURI(uint256)": "c87b56dd",
    "totalSupply()": "18160ddd",
    "transferFrom(address,address,uint256)": "23b872dd",
    "transferOwnership(address)": "f2fde38b",
    "unpause()": "3f4ba83a",
    "version()": "54fd4d50",
    "walletOfOwner(address)": "438b6300",
    "withdraw(address)": "51cff8d9"
  },
  "id": 7
}