{
  "abi": [
    {
      "anonymous": false,
      "inputs": [
        {
          "indexed": true,
          "internalType": "address",
          "name": "owner",
          "type": "address"
        },
        {
          "indexed": true,
          "internalType": "address",
          "name": "approved",
          "type": "address"
        },
        {
          "indexed": true,
          "internalType": "uint256",
          "name": "tokenId",
          "type": "uint256"
        }
      ],
      "name": "Approval",
      "type": "event"
    },
    {
      "anonymous": false,
      "inputs": [
        {
          "indexed": true,
          "internalType": "address",
          "name": "owner",
          "type": "address"
        },
        {
          "indexed": true,
          "internalType": "address",
          "name": "operator",
          "type": "address"
        },
        {
          "indexed": false,
          "internalType": "bool",
          "name": "approved",
          "type": "bool"
        }
      ],
      "name": "ApprovalForAll",
      "type": "event"
    },
    {
      "anonymous": false,
      "inputs": [
        {
          "indexed": false,
          "internalType": "uint8",
          "name": "version",
          "type": "uint8"
        }
      ],
      "name": "Initialized",
      "type": "event"
    },
    {
      "anonymous": false,
      "inputs": [
        {
          "indexed": true,
          "internalType": "address",
          "name": "purchaser",
          "type": "address"
        },
        {
          "indexed": true,
          "internalType": "uint256",
          "name": "id",
          "type": "uint256"
        }
      ],
      "name": "NFTMinted",
      "type": "event"
    },
    {
      "anonymous": false,
      "inputs": [
        {
          "indexed": true,
          "internalType": "address",
          "name": "previousOwner",
          "type": "address"
        },
        {
          "indexed": true,
          "internalType": "address",
          "name": "newOwner",
          "type": "address"
        }
      ],
      "name": "OwnershipTransferred",
      "type": "event"
    },
    {
      "anonymous": false,
      "inputs": [
        {
          "indexed": false,
          "internalType": "address",
          "name": "account",
          "type": "address"
        }
      ],
      "name": "Paused",
      "type": "event"
    },
    {
      "anonymous": false,
      "inputs": [
        {
          "indexed": true,
          "internalType": "address",
          "name": "from",
          "type": "address"
        },
        {
          "indexed": true,
          "internalType": "address",
          "name": "to",
          "type": "address"
        },
        {
          "indexed": true,
          "internalType": "uint256",
          "name": "tokenId",
          "type": "uint256"
        }
      ],
      "name": "Transfer",
      "type": "event"
    },
    {
      "anonymous": false,
      "inputs": [
        {
          "indexed": false,
          "internalType": "address",
          "name": "account",
          "type": "address"
        }
      ],
      "name": "Unpaused",
      "type": "event"
    },
    {
      "stateMutability": "payable",
      "type": "fallback"
    },
    {
      "inputs": [
        {
          "internalType": "address",
          "name": "to",
          "type": "address"
        },
        {
          "internalType": "uint256",
          "name": "tokenId",
          "type": "uint256"
        }
      ],
      "name": "approve",
      "outputs": [],
      "stateMutability": "nonpayable",
      "type": "function"
    },
    {
      "inputs": [
        {
          "internalType": "address",
          "name": "owner",
          "type": "address"
        }
      ],
      "name": "balanceOf",
      "outputs": [
        {
          "internalType": "uint256",
          "name": "",
          "type": "uint256"
        }
      ],
      "stateMutability": "view",
      "type": "function"
    },
    {
      "inputs": [
        {
          "internalType": "uint256",
          "name": "tokenId",
          "type": "uint256"
        }
      ],
      "name": "getApproved",
      "outputs": [
        {
          "internalType": "address",
          "name": "",
          "type": "address"
        }
      ],
      "stateMutability": "view",
      "type": "function"
    },
    {
      "inputs": [],
      "name": "getCost",
      "outputs": [
        {
          "internalType": "uint256",
          "name": "",
          "type": "uint256"
        }
      ],
      "stateMutability": "view",
      "type": "function"
    },
    {
      "inputs": [],
      "name": "getOutstandingSupply",
      "outputs": [
        {
          "internalType": "uint256",
          "name": "",
          "type": "uint256"
        }
      ],
      "stateMutability": "view",
      "type": "function"
    },
    {
      "inputs": [],
      "name": "getWallet",
      "outputs": [
        {
          "internalType": "address payable",
          "name": "",
          "type": "address"
        }
      ],
      "stateMutability": "view",
      "type": "function"
    },
    {
      "inputs": [
        {
          "internalType": "address",
          "name": "initWallet",
          "type": "address"
        },
        {
          "internalType": "uint256",
          "name": "initMintAmount",
          "type": "uint256"
        }
      ],
      "name": "initMint",
      "outputs": [],
      "stateMutability": "nonpayable",
      "type": "function"
    },
    {
      "inputs": [
        {
          "internalType": "address payable",
          "name": "_wallet",
          "type": "address"
        },
        {
          "internalType": "uint256",
          "name": "initCost",
          "type": "uint256"
        }
      ],
      "name": "initialize",
      "outputs": [],
      "stateMutability": "nonpayable",
      "type": "function"
    },
    {
      "inputs": [
        {
          "internalType": "address",
          "name": "owner",
          "type": "address"
        },
        {
          "internalType": "address",
          "name": "operator",
          "type": "address"
        }
      ],
      "name": "isApprovedForAll",
      "outputs": [
        {
          "internalType": "bool",
          "name": "",
          "type": "bool"
        }
      ],
      "stateMutability": "view",
      "type": "function"
    },
    {
      "inputs": [],
      "name": "maxSupply",
      "outputs": [
        {
          "internalType": "uint256",
          "name": "",
          "type": "uint256"
        }
      ],
      "stateMutability": "view",
      "type": "function"
    },
    {
      "inputs": [
        {
          "internalType": "uint256",
          "name": "_mintAmount",
          "type": "uint256"
        }
      ],
      "name": "mint",
      "outputs": [],
      "stateMutability": "payable",
      "type": "function"
    },
    {
      "inputs": [],
      "name": "name",
      "outputs": [
        {
          "internalType": "string",
          "name": "",
          "type": "string"
        }
      ],
      "stateMutability": "view",
      "type": "function"
    },
    {
      "inputs": [],
      "name": "owner",
      "outputs": [
        {
          "internalType": "address",
          "name": "",
          "type": "address"
        }
      ],
      "stateMutability": "view",
      "type": "function"
    },
    {
      "inputs": [
        {
          "internalType": "uint256",
          "name": "tokenId",
          "type": "uint256"
        }
      ],
      "name": "ownerOf",
      "outputs": [
        {
          "internalType": "address",
          "name": "",
          "type": "address"
        }
      ],
      "stateMutability": "view",
      "type": "function"
    },
    {
      "inputs": [],
      "name": "pause",
      "outputs": [],
      "stateMutability": "nonpayable",
      "type": "function"
    },
    {
      "inputs": [],
      "name": "paused",
      "outputs": [
        {
          "internalType": "bool",
          "name": "",
          "type": "bool"
        }
      ],
      "stateMutability": "view",
      "type": "function"
    },
    {
      "inputs": [],
      "name": "renounceOwnership",
      "outputs": [],
      "stateMutability": "nonpayable",
      "type": "function"
    },
    {
      "inputs": [
        {
          "internalType": "uint256",
          "name": "",
          "type": "uint256"
        },
        {
          "internalType": "uint256",
          "name": "value",
          "type": "uint256"
        }
      ],
      "name": "royaltyInfo",
      "outputs": [
        {
          "internalType": "address",
          "name": "receiver",
          "type": "address"
        },
        {
          "internalType": "uint256",
          "name": "royaltyAmount",
          "type": "uint256"
        }
      ],
      "stateMutability": "view",
      "type": "function"
    },
    {
      "inputs": [
        {
          "internalType": "address",
          "name": "from",
          "type": "address"
        },
        {
          "internalType": "address",
          "name": "to",
          "type": "address"
        },
        {
          "internalType": "uint256",
          "name": "tokenId",
          "type": "uint256"
        }
      ],
      "name": "safeTransferFrom",
      "outputs": [],
      "stateMutability": "nonpayable",
      "type": "function"
    },
    {
      "inputs": [
        {
          "internalType": "address",
          "name": "from",
          "type": "address"
        },
        {
          "internalType": "address",
          "name": "to",
          "type": "address"
        },
        {
          "internalType": "uint256",
          "name": "tokenId",
          "type": "uint256"
        },
        {
          "internalType": "bytes",
          "name": "data",
          "type": "bytes"
        }
      ],
      "name": "safeTransferFrom",
      "outputs": [],
      "stateMutability": "nonpayable",
      "type": "function"
    },
    {
      "inputs": [
        {
          "internalType": "address",
          "name": "operator",
          "type": "address"
        },
        {
          "internalType": "bool",
          "name": "approved",
          "type": "bool"
        }
      ],
      "name": "setApprovalForAll",
      "outputs": [],
      "stateMutability": "nonpayable",
      "type": "function"
    },
    {
      "inputs": [
        {
          "internalType": "string",
          "name": "_newBaseURI",
          "type": "string"
        }
      ],
      "name": "setBaseURI",
      "outputs": [],
      "stateMutability": "nonpayable",
      "type": "function"
    },
    {
      "inputs": [
        {
          "internalType": "uint256",
          "name": "_newCost",
          "type": "uint256"
        }
      ],
      "name": "setCost",
      "outputs": [],
      "stateMutability": "nonpayable",
      "type": "function"
    },
    {
      "inputs": [
        {
          "internalType": "uint256",
          "name": "_newMaxMintAmount",
          "type": "uint256"
        }
      ],
      "name": "setMaxMintAmount",
      "outputs": [],
      "stateMutability": "nonpayable",
      "type": "function"
    },
    {
      "inputs": [
        {
          "internalType": "uint256",
          "name": "_newMaxSupply",
          "type": "uint256"
        }
      ],
      "name": "setMaxSupply",
      "outputs": [],
      "stateMutability": "nonpayable",
      "type": "function"
    },
    {
      "inputs": [
        {
          "internalType": "string",
          "name": "_notRevealedURI",
          "type": "string"
        }
      ],
      "name": "setNotRevealedURI",
      "outputs": [],
      "stateMutability": "nonpayable",
      "type": "function"
    },
    {
      "inputs": [
        {
          "internalType": "bool",
          "name": "_revealed",
          "type": "bool"
        }
      ],
      "name": "setRevealed",
      "outputs": [],
      "stateMutability": "nonpayable",
      "type": "function"
    },
    {
      "inputs": [
        {
          "internalType": "address payable",
          "name": "_wallet",
          "type": "address"
        }
      ],
      "name": "setWallet",
      "outputs": [],
      "stateMutability": "nonpayable",
      "type": "function"
    },
    {
      "inputs": [
        {
          "internalType": "bytes4",
          "name": "interfaceId",
          "type": "bytes4"
        }
      ],
      "name": "supportsInterface",
      "outputs": [
        {
          "internalType": "bool",
          "name": "",
          "type": "bool"
        }
      ],
      "stateMutability": "view",
      "type": "function"
    },
    {
      "inputs": [],
      "name": "symbol",
      "outputs": [
        {
          "internalType": "string",
          "name": "",
          "type": "string"
        }
      ],
      "stateMutability": "view",
      "type": "function"
    },
    {
      "inputs": [
        {
          "internalType": "uint256",
          "name": "index",
          "type": "uint256"
        }
      ],
      "name": "tokenByIndex",
      "outputs": [
        {
          "internalType": "uint256",
          "name": "",
          "type": "uint256"
        }
      ],
      "stateMutability": "view",
      "type": "function"
    },
    {
      "inputs": [
        {
          "internalType": "address",
          "name": "owner",
          "type": "address"
        },
        {
          "internalType": "uint256",
          "name": "index",
          "type": "uint256"
        }
      ],
      "name": "tokenOfOwnerByIndex",
      "outputs": [
        {
          "internalType": "uint256",
          "name": "",
          "type": "uint256"
        }
      ],
      "stateMutability": "view",
      "type": "function"
    },
    {
      "inputs": [
        {
          "internalType": "uint256",
          "name": "tokenId",
          "type": "uint256"
        }
      ],
      "name": "tokenURI",
      "outputs": [
        {
          "internalType": "string",
          "name": "",
          "type": "string"
        }
      ],
      "stateMutability": "view",
      "type": "function"
    },
    {
      "inputs": [],
      "name": "totalSupply",
      "outputs": [
        {
          "internalType": "uint256",
          "name": "",
          "type": "uint256"
        }
      ],
      "stateMutability": "view",
      "type": "function"
    },
    {
      "inputs": [
        {
          "internalType": "address",
          "name": "from",
          "type": "address"
        },
        {
          "internalType": "address",
          "name": "to",
          "type": "address"
        },
        {
          "internalType": "uint256",
          "name": "tokenId",
          "type": "uint256"
        }
      ],
      "name": "transferFrom",
      "outputs": [],
      "stateMutability": "nonpayable",
      "type": "function"
    },
    {
      "inputs": [
        {
          "internalType": "address",
          "name": "newOwner",
          "type": "address"
        }
      ],
      "name": "transferOwnership",
      "outputs": [],
      "stateMutability": "nonpayable",
      "type": "function"
    },
    {
      "inputs": [],
      "name": "unpause",
      "outputs": [],
      "stateMutability": "nonpayable",
      "type": "function"
    },
    {
      "inputs": [],
      "name": "version",
      "outputs": [
        {
          "internalType": "uint256",
          "name": "",
          "type": "uint256"
        }
      ],
      "stateMutability": "pure",
      "type": "function"
    },
    {
      "inputs": [
        {
          "internalType": "address",
          "name": "_owner",
          "type": "address"
        }
      ],
      "name": "walletOfOwner",
      "outputs": [
        {
          "internalType": "uint256[]",
          "name": "",
          "type": "uint256[]"
        }
      ],
      "stateMutability": "view",
      "type": "function"
    },
    {
      "inputs": [
        {
          "internalType": "address payable",
          "name": "_to",
          "type": "address"
        }
      ],
      "name": "withdraw",
      "outputs": [],
      "stateMutability": "payable",
      "type": "function"
    },
    {
      "stateMutability": "payable",
      "type": "receive"
    }
  ],
  "bytecode": {
    "object": "0x60806040523480156200001157600080fd5b506040805180820182526008815267151a194812195c9960c21b60208083019182528351808501909452600484526311d3d05560e21b9084015281519192916200005e91600191620000ec565b50805162000074906002906020840190620000ec565b5050600c805460ff19169055506200008c3362000092565b620001cf565b600c80546001600160a01b03838116610100818102610100600160a81b031985161790945560405193909204169182907f8be0079c531659141344cd1fd0a4f28419497f9722a3daafe3b4186f6b6457e090600090a35050565b828054620000fa9062000192565b90600052602060002090601f0160209004810192826200011e576000855562000169565b82601f106200013957805160ff191683800117855562000169565b8280016001018555821562000169579182015b82811115620001695782518255916020019190600101906200014c565b50620001779291506200017b565b5090565b5b808211156200017757600081556001016200017c565b600181811c90821680620001a757607f821691505b60208210811415620001c957634e487b7160e01b600052602260045260246000fd5b50919050565b61252980620001df6000396000f3fe6080604052600436106102275760003560e01c80636352211e11610122578063bd3e19d4116100a5578063deaa59df1161006c578063deaa59df14610671578063e0a8085314610691578063e985e9c5146106b1578063f2c4ce1e146106fa578063f2fde38b1461071a57005b8063bd3e19d4146105f1578063c87b56dd14610606578063cd6dc68714610626578063d1521b1114610646578063d5abeb011461065b57005b80638da5cb5b116100e95780638da5cb5b1461056657806395d89b4114610589578063a0712d681461059e578063a22cb465146105b1578063b88d4fde146105d157005b80636352211e146104dc5780636f8b44b0146104fc57806370a082311461051c578063715018a61461053c5780638456cb591461055157005b80632f745c59116101aa5780634f6ccce7116101715780634f6ccce71461045d57806351cff8d91461047d57806354fd4d501461049057806355f804b3146104a45780635c975abb146104c457005b80632f745c59146103bb5780633f4ba83a146103db57806342842e0e146103f0578063438b63001461041057806344a0d68a1461043d57005b806313299604116101ee57806313299604146102ff57806318160ddd1461031d5780631a955b521461033c57806323b872dd1461035c5780632a55205a1461037c57005b806301ffc9a71461023057806306fdde0314610265578063081812fc14610287578063088a4ed0146102bf578063095ea7b3146102df57005b3661022e57005b005b34801561023c57600080fd5b5061025061024b366004611ed9565b61073a565b60405190151581526020015b60405180910390f35b34801561027157600080fd5b5061027a61074b565b60405161025c9190611f4e565b34801561029357600080fd5b506102a76102a2366004611f61565b6107dd565b6040516001600160a01b03909116815260200161025c565b3480156102cb57600080fd5b5061022e6102da366004611f61565b610804565b3480156102eb57600080fd5b5061022e6102fa366004611f8f565b610811565b34801561030b57600080fd5b506014546001600160a01b03166102a7565b34801561032957600080fd5b506009545b60405190815260200161025c565b34801561034857600080fd5b5061022e610357366004611f8f565b61092c565b34801561036857600080fd5b5061022e610377366004611fbb565b610959565b34801561038857600080fd5b5061039c610397366004611ffc565b61098a565b604080516001600160a01b03909316835260208301919091520161025c565b3480156103c757600080fd5b5061032e6103d6366004611f8f565b6109df565b3480156103e757600080fd5b5061022e610a75565b3480156103fc57600080fd5b5061022e61040b366004611fbb565b610a87565b34801561041c57600080fd5b5061043061042b36600461201e565b610aa2565b60405161025c919061203b565b34801561044957600080fd5b5061022e610458366004611f61565b610b44565b34801561046957600080fd5b5061032e610478366004611f61565b610b51565b61022e61048b36600461201e565b610be4565b34801561049c57600080fd5b50600261032e565b3480156104b057600080fd5b5061022e6104bf36600461210b565b610c24565b3480156104d057600080fd5b50600c5460ff16610250565b3480156104e857600080fd5b506102a76104f7366004611f61565b610c43565b34801561050857600080fd5b5061022e610517366004611f61565b610ca3565b34801561052857600080fd5b5061032e61053736600461201e565b610cb0565b34801561054857600080fd5b5061022e610d36565b34801561055d57600080fd5b5061022e610d48565b34801561057257600080fd5b50600c5461010090046001600160a01b03166102a7565b34801561059557600080fd5b5061027a610d58565b61022e6105ac366004611f61565b610d67565b3480156105bd57600080fd5b5061022e6105cc366004612169565b610e19565b3480156105dd57600080fd5b5061022e6105ec36600461219e565b610e24565b3480156105fd57600080fd5b50600f5461032e565b34801561061257600080fd5b5061027a610621366004611f61565b610e5c565b34801561063257600080fd5b5061022e610641366004611f8f565b610fd3565b34801561065257600080fd5b5061032e61104e565b34801561066757600080fd5b5061032e60105481565b34801561067d57600080fd5b5061022e61068c36600461201e565b61105e565b34801561069d57600080fd5b5061022e6106ac36600461221e565b611088565b3480156106bd57600080fd5b506102506106cc366004612239565b6001600160a01b03918216600090815260066020908152604080832093909416825291909152205460ff1690565b34801561070657600080fd5b5061022e61071536600461210b565b6110a3565b34801561072657600080fd5b5061022e61073536600461201e565b6110be565b600061074582611137565b92915050565b60606001805461075a90612272565b80601f016020809104026020016040519081016040528092919081815260200182805461078690612272565b80156107d35780601f106107a8576101008083540402835291602001916107d3565b820191906000526020600020905b8154815290600101906020018083116107b657829003601f168201915b5050505050905090565b60006107e88261115c565b506000908152600560205260409020546001600160a01b031690565b61080c6111bb565b601155565b600061081c82610c43565b9050806001600160a01b0316836001600160a01b0316141561088f5760405162461bcd60e51b815260206004820152602160248201527f4552433732313a20617070726f76616c20746f2063757272656e74206f776e656044820152603960f91b60648201526084015b60405180910390fd5b336001600160a01b03821614806108ab57506108ab81336106cc565b61091d5760405162461bcd60e51b815260206004820152603e60248201527f4552433732313a20617070726f76652063616c6c6572206973206e6f7420746f60448201527f6b656e206f776e6572206e6f7220617070726f76656420666f7220616c6c00006064820152608401610886565b610927838361121b565b505050565b6109346111bb565b60015b8181116109275761094783611289565b80610951816122c3565b915050610937565b61096333826112df565b61097f5760405162461bcd60e51b8152600401610886906122de565b61092783838361135e565b60408051808201909152600b546001600160a01b038116808352600160a01b90910462ffffff16602083018190529091600091612710906109cb908661232c565b6109d59190612361565b9150509250929050565b60006109ea83610cb0565b8210610a4c5760405162461bcd60e51b815260206004820152602b60248201527f455243373231456e756d657261626c653a206f776e657220696e646578206f7560448201526a74206f6620626f756e647360a81b6064820152608401610886565b506001600160a01b03919091166000908152600760209081526040808320938352929052205490565b610a7d6111bb565b610a85611505565b565b61092783838360405180602001604052806000815250610e24565b60606000610aaf83610cb0565b905060008167ffffffffffffffff811115610acc57610acc61207f565b604051908082528060200260200182016040528015610af5578160200160208202803683370190505b50905060005b82811015610b3c57610b0d85826109df565b828281518110610b1f57610b1f612375565b602090810291909101015280610b34816122c3565b915050610afb565b509392505050565b610b4c6111bb565b600f55565b6000610b5c60095490565b8210610bbf5760405162461bcd60e51b815260206004820152602c60248201527f455243373231456e756d657261626c653a20676c6f62616c20696e646578206f60448201526b7574206f6620626f756e647360a01b6064820152608401610886565b60098281548110610bd257610bd2612375565b90600052602060002001549050919050565b610bec6111bb565b60405147906001600160a01b0383169082156108fc029083906000818181858888f19350505050158015610927573d6000803e3d6000fd5b610c2c6111bb565b8051610c3f90600e906020840190611e2a565b5050565b6000818152600360205260408120546001600160a01b0316806107455760405162461bcd60e51b8152602060048201526018602482015277115490cdcc8c4e881a5b9d985b1a59081d1bdad95b88125160421b6044820152606401610886565b610cab6111bb565b601055565b60006001600160a01b038216610d1a5760405162461bcd60e51b815260206004820152602960248201527f4552433732313a2061646472657373207a65726f206973206e6f7420612076616044820152683634b21037bbb732b960b91b6064820152608401610886565b506001600160a01b031660009081526004602052604090205490565b610d3e6111bb565b610a856000611557565b610d506111bb565b610a856115b1565b60606002805461075a90612272565b6000610d7260095490565b9050610d80600c5460ff1690565b15610d8a57600080fd5b60008211610d9757600080fd5b601154821115610da657600080fd5b601054610db382846115ee565b1115610dbe57600080fd5b600f54600090610dce90846115fa565b600f54909150610dde90846115fa565b341015610dea57600080fd5b60015b838111610e0f57610dfd33611289565b80610e07816122c3565b915050610ded565b5061092781611606565b610c3f338383611640565b610e2e33836112df565b610e4a5760405162461bcd60e51b8152600401610886906122de565b610e568484848461170f565b50505050565b6000818152600360205260409020546060906001600160a01b0316610edb5760405162461bcd60e51b815260206004820152602f60248201527f4552433732314d657461646174613a2055524920717565727920666f72206e6f60448201526e3732bc34b9ba32b73a103a37b5b2b760891b6064820152608401610886565b60125460ff16610f775760138054610ef290612272565b80601f0160208091040260200160405190810160405280929190818152602001828054610f1e90612272565b8015610f6b5780601f10610f4057610100808354040283529160200191610f6b565b820191906000526020600020905b815481529060010190602001808311610f4e57829003601f168201915b50505050509050919050565b6000610f81611742565b90506000815111610fa15760405180602001604052806000815250610fcc565b80610fab84611751565b604051602001610fbc92919061238b565b6040516020818303038152906040525b9392505050565b610feb60405180602001604052806000815250610c24565b61100c6040518060600160405280602481526020016124d0602491396110a3565b600f819055612710601055601460118190556012805460ff1916905580546001600160a01b0319166001600160a01b038416179055600d805460010190555050565b600061105960095490565b905090565b6110666111bb565b601480546001600160a01b0319166001600160a01b0392909216919091179055565b6110906111bb565b6012805460ff1916911515919091179055565b6110ab6111bb565b8051610c3f906013906020840190611e2a565b6110c66111bb565b6001600160a01b03811661112b5760405162461bcd60e51b815260206004820152602660248201527f4f776e61626c653a206e6577206f776e657220697320746865207a65726f206160448201526564647265737360d01b6064820152608401610886565b61113481611557565b50565b60006001600160e01b0319821663780e9d6360e01b148061074557506107458261184f565b6000818152600360205260409020546001600160a01b03166111345760405162461bcd60e51b8152602060048201526018602482015277115490cdcc8c4e881a5b9d985b1a59081d1bdad95b88125160421b6044820152606401610886565b600c546001600160a01b03610100909104163314610a855760405162461bcd60e51b815260206004820181905260248201527f4f776e61626c653a2063616c6c6572206973206e6f7420746865206f776e65726044820152606401610886565b600081815260056020526040902080546001600160a01b0319166001600160a01b038416908117909155819061125082610c43565b6001600160a01b03167f8c5be1e5ebec7d5bd14f71427d1e84f3dd0314c0f7b2291e5b200ac8c7c3b92560405160405180910390a45050565b6000611294600d5490565b90506112a4600d80546001019055565b6112ae828261189f565b604051819033907f4cc0a9c4a99ddc700de1af2c9f916a7cbfdb71f14801ccff94061ad1ef8a804090600090a35050565b6000806112eb83610c43565b9050806001600160a01b0316846001600160a01b0316148061133257506001600160a01b0380821660009081526006602090815260408083209388168352929052205460ff165b806113565750836001600160a01b031661134b846107dd565b6001600160a01b0316145b949350505050565b826001600160a01b031661137182610c43565b6001600160a01b0316146113d55760405162461bcd60e51b815260206004820152602560248201527f4552433732313a207472616e736665722066726f6d20696e636f72726563742060448201526437bbb732b960d91b6064820152608401610886565b6001600160a01b0382166114375760405162461bcd60e51b8152602060048201526024808201527f4552433732313a207472616e7366657220746f20746865207a65726f206164646044820152637265737360e01b6064820152608401610886565b6114428383836118b9565b61144d60008261121b565b6001600160a01b03831660009081526004602052604081208054600192906114769084906123ca565b90915550506001600160a01b03821660009081526004602052604081208054600192906114a49084906123e1565b909155505060008181526003602052604080822080546001600160a01b0319166001600160a01b0386811691821790925591518493918716917fddf252ad1be2c89b69c2b068fc378daa952ba7f163c4a11628f55a4df523b3ef91a4505050565b61150d6118d4565b600c805460ff191690557f5db9ee0a495bf2e6ff9c91a7834c1ba4fdd244a5e8aa4e537bd38aeae4b073aa335b6040516001600160a01b03909116815260200160405180910390a1565b600c80546001600160a01b03838116610100818102610100600160a81b031985161790945560405193909204169182907f8be0079c531659141344cd1fd0a4f28419497f9722a3daafe3b4186f6b6457e090600090a35050565b6115b961191d565b600c805460ff191660011790557f62e78cea01bee320cd4e420270b5ea74000d11b0c9f74754ebdbfc544b05a25861153a3390565b6000610fcc82846123e1565b6000610fcc828461232c565b6014546040516001600160a01b039091169082156108fc029083906000818181858888f19350505050158015610c3f573d6000803e3d6000fd5b816001600160a01b0316836001600160a01b031614156116a25760405162461bcd60e51b815260206004820152601960248201527f4552433732313a20617070726f766520746f2063616c6c6572000000000000006044820152606401610886565b6001600160a01b03838116600081815260066020908152604080832094871680845294825291829020805460ff191686151590811790915591519182527f17307eab39ab6107e8899845ad3d59bd9653f200f220920489ca2b5937696c31910160405180910390a3505050565b61171a84848461135e565b61172684848484611963565b610e565760405162461bcd60e51b8152600401610886906123f9565b6060600e805461075a90612272565b6060816117755750506040805180820190915260018152600360fc1b602082015290565b8160005b811561179f5780611789816122c3565b91506117989050600a83612361565b9150611779565b60008167ffffffffffffffff8111156117ba576117ba61207f565b6040519080825280601f01601f1916602001820160405280156117e4576020820181803683370190505b5090505b8415611356576117f96001836123ca565b9150611806600a8661244b565b6118119060306123e1565b60f81b81838151811061182657611826612375565b60200101906001600160f81b031916908160001a905350611848600a86612361565b94506117e8565b60006001600160e01b031982166380ac58cd60e01b148061188057506001600160e01b03198216635b5e139f60e01b145b8061074557506301ffc9a760e01b6001600160e01b0319831614610745565b610c3f828260405180602001604052806000815250611a61565b600c5460ff16156118c957600080fd5b610927838383611a94565b600c5460ff16610a855760405162461bcd60e51b815260206004820152601460248201527314185d5cd8589b194e881b9bdd081c185d5cd95960621b6044820152606401610886565b600c5460ff1615610a855760405162461bcd60e51b815260206004820152601060248201526f14185d5cd8589b194e881c185d5cd95960821b6044820152606401610886565b60006001600160a01b0384163b15611a5657604051630a85bd0160e11b81526001600160a01b0385169063150b7a02906119a790339089908890889060040161245f565b6020604051808303816000875af19250505080156119e2575060408051601f3d908101601f191682019092526119df9181019061249c565b60015b611a3c573d808015611a10576040519150601f19603f3d011682016040523d82523d6000602084013e611a15565b606091505b508051611a345760405162461bcd60e51b8152600401610886906123f9565b805181602001fd5b6001600160e01b031916630a85bd0160e11b149050611356565b506001949350505050565b611a6b8383611b4c565b611a786000848484611963565b6109275760405162461bcd60e51b8152600401610886906123f9565b6001600160a01b038316611aef57611aea81600980546000838152600a60205260408120829055600182018355919091527f6e1540171b6c0c960b71a7020d9f60077f6af931a8bbf590da0223dacf75c7af0155565b611b12565b816001600160a01b0316836001600160a01b031614611b1257611b128382611c9a565b6001600160a01b038216611b295761092781611d37565b826001600160a01b0316826001600160a01b031614610927576109278282611de6565b6001600160a01b038216611ba25760405162461bcd60e51b815260206004820181905260248201527f4552433732313a206d696e7420746f20746865207a65726f20616464726573736044820152606401610886565b6000818152600360205260409020546001600160a01b031615611c075760405162461bcd60e51b815260206004820152601c60248201527f4552433732313a20746f6b656e20616c7265616479206d696e746564000000006044820152606401610886565b611c13600083836118b9565b6001600160a01b0382166000908152600460205260408120805460019290611c3c9084906123e1565b909155505060008181526003602052604080822080546001600160a01b0319166001600160a01b03861690811790915590518392907fddf252ad1be2c89b69c2b068fc378daa952ba7f163c4a11628f55a4df523b3ef908290a45050565b60006001611ca784610cb0565b611cb191906123ca565b600083815260086020526040902054909150808214611d04576001600160a01b03841660009081526007602090815260408083208584528252808320548484528184208190558352600890915290208190555b5060009182526008602090815260408084208490556001600160a01b039094168352600781528383209183525290812055565b600954600090611d49906001906123ca565b6000838152600a602052604081205460098054939450909284908110611d7157611d71612375565b906000526020600020015490508060098381548110611d9257611d92612375565b6000918252602080832090910192909255828152600a90915260408082208490558582528120556009805480611dca57611dca6124b9565b6001900381819060005260206000200160009055905550505050565b6000611df183610cb0565b6001600160a01b039093166000908152600760209081526040808320868452825280832085905593825260089052919091209190915550565b828054611e3690612272565b90600052602060002090601f016020900481019282611e585760008555611e9e565b82601f10611e7157805160ff1916838001178555611e9e565b82800160010185558215611e9e579182015b82811115611e9e578251825591602001919060010190611e83565b50611eaa929150611eae565b5090565b5b80821115611eaa5760008155600101611eaf565b6001600160e01b03198116811461113457600080fd5b600060208284031215611eeb57600080fd5b8135610fcc81611ec3565b60005b83811015611f11578181015183820152602001611ef9565b83811115610e565750506000910152565b60008151808452611f3a816020860160208601611ef6565b601f01601f19169290920160200192915050565b602081526000610fcc6020830184611f22565b600060208284031215611f7357600080fd5b5035919050565b6001600160a01b038116811461113457600080fd5b60008060408385031215611fa257600080fd5b8235611fad81611f7a565b946020939093013593505050565b600080600060608486031215611fd057600080fd5b8335611fdb81611f7a565b92506020840135611feb81611f7a565b929592945050506040919091013590565b6000806040838503121561200f57600080fd5b50508035926020909101359150565b60006020828403121561203057600080fd5b8135610fcc81611f7a565b6020808252825182820181905260009190848201906040850190845b8181101561207357835183529284019291840191600101612057565b50909695505050505050565b634e487b7160e01b600052604160045260246000fd5b600067ffffffffffffffff808411156120b0576120b061207f565b604051601f8501601f19908116603f011681019082821181831017156120d8576120d861207f565b816040528093508581528686860111156120f157600080fd5b858560208301376000602087830101525050509392505050565b60006020828403121561211d57600080fd5b813567ffffffffffffffff81111561213457600080fd5b8201601f8101841361214557600080fd5b61135684823560208401612095565b8035801515811461216457600080fd5b919050565b6000806040838503121561217c57600080fd5b823561218781611f7a565b915061219560208401612154565b90509250929050565b600080600080608085870312156121b457600080fd5b84356121bf81611f7a565b935060208501356121cf81611f7a565b925060408501359150606085013567ffffffffffffffff8111156121f257600080fd5b8501601f8101871361220357600080fd5b61221287823560208401612095565b91505092959194509250565b60006020828403121561223057600080fd5b610fcc82612154565b6000806040838503121561224c57600080fd5b823561225781611f7a565b9150602083013561226781611f7a565b809150509250929050565b600181811c9082168061228657607f821691505b602082108114156122a757634e487b7160e01b600052602260045260246000fd5b50919050565b634e487b7160e01b600052601160045260246000fd5b60006000198214156122d7576122d76122ad565b5060010190565b6020808252602e908201527f4552433732313a2063616c6c6572206973206e6f7420746f6b656e206f776e6560408201526d1c881b9bdc88185c1c1c9bdd995960921b606082015260800190565b6000816000190483118215151615612346576123466122ad565b500290565b634e487b7160e01b600052601260045260246000fd5b6000826123705761237061234b565b500490565b634e487b7160e01b600052603260045260246000fd5b6000835161239d818460208801611ef6565b8351908301906123b1818360208801611ef6565b64173539b7b760d91b9101908152600501949350505050565b6000828210156123dc576123dc6122ad565b500390565b600082198211156123f4576123f46122ad565b500190565b60208082526032908201527f4552433732313a207472616e7366657220746f206e6f6e20455243373231526560408201527131b2b4bb32b91034b6b83632b6b2b73a32b960711b606082015260800190565b60008261245a5761245a61234b565b500690565b6001600160a01b038581168252841660208201526040810183905260806060820181905260009061249290830184611f22565b9695505050505050565b6000602082840312156124ae57600080fd5b8151610fcc81611ec3565b634e487b7160e01b600052603160045260246000fdfe68747470733a2f2f77696c64636172642d6261792e76657263656c2e6170702f6170692fa2646970667358221220a00bb643306d23977c2d8c9b4923b68c1f704d4c1ebbd8e2d0e83d187b83712864736f6c634300080a0033",
    "linkReferences": {}
  },
  "methodIdentifiers": {
    "approve(address,uint256)": "095ea7b3",
    "balanceOf(address)": "70a08231",
    "getApproved(uint256)": "081812fc",
    "getCost()": "bd3e19d4",
    "getOutstandingSupply()": "d1521b11",
    "getWallet()": "13299604",
    "initMint(address,uint256)": "1a955b52",
    "initialize(address,uint256)": "cd6dc687",
    "isApprovedForAll(address,address)": "e985e9c5",
    "maxSupply()": "d5abeb01",
    "mint(uint256)": "a0712d68",
    "name()": "06fdde03",
    "owner()": "8da5cb5b",
    "ownerOf(uint256)": "6352211e",
    "pause()": "8456cb59",
    "paused()": "5c975abb",
    "renounceOwnership()": "715018a6",
    "royaltyInfo(uint256,uint256)": "2a55205a",
    "safeTransferFrom(address,address,uint256)": "42842e0e",
    "safeTransferFrom(address,address,uint256,bytes)": "b88d4fde",
    "setApprovalForAll(address,bool)": "a22cb465",
    "setBaseURI(string)": "55f804b3",
    "setCost(uint256)": "44a0d68a",
    "setMaxMintAmount(uint256)": "088a4ed0",
    "setMaxSupply(uint256)": "6f8b44b0",
    "setNotRevealedURI(string)": "f2c4ce1e",
    "setRevealed(bool)": "e0a80853",
    "setWallet(address)": "deaa59df",
    "supportsInterface(bytes4)": "01ffc9a7",
    "symbol()": "95d89b41",
    "tokenByIndex(uint256)": "4f6ccce7",
    "tokenOfOwnerByIndex(address,uint256)": "2f745c59",
    "tokenURI(uint256)": "c87b56dd",
    "totalSupply()": "18160ddd",
    "transferFrom(address,address,uint256)": "23b872dd",
    "transferOwnership(address)": "f2fde38b",
    "unpause()": "3f4ba83a",
    "version()": "54fd4d50",
    "walletOfOwner(address)": "438b6300",
    "withdraw(address)": "51cff8d9"
  },
  "id": 2
}